{
	"contracts/KipuBank.sol": {
		"KipuBank": {
			"abi": [
				{
					"inputs": [
						{
							"internalType": "uint256",
							"name": "withdrawalThreshold",
							"type": "uint256"
						},
						{
							"internalType": "uint256",
							"name": "bankCap",
							"type": "uint256"
						}
					],
					"stateMutability": "nonpayable",
					"type": "constructor"
				},
				{
					"inputs": [
						{
							"internalType": "uint256",
							"name": "cap",
							"type": "uint256"
						},
						{
							"internalType": "uint256",
							"name": "attempted",
							"type": "uint256"
						}
					],
					"name": "ExceedsBankCap",
					"type": "error"
				},
				{
					"inputs": [
						{
							"internalType": "uint256",
							"name": "threshold",
							"type": "uint256"
						},
						{
							"internalType": "uint256",
							"name": "attempted",
							"type": "uint256"
						}
					],
					"name": "ExceedsThreshold",
					"type": "error"
				},
				{
					"inputs": [
						{
							"internalType": "uint256",
							"name": "balance",
							"type": "uint256"
						},
						{
							"internalType": "uint256",
							"name": "attempted",
							"type": "uint256"
						}
					],
					"name": "InsufficientFunds",
					"type": "error"
				},
				{
					"inputs": [],
					"name": "Reentrancy",
					"type": "error"
				},
				{
					"inputs": [],
					"name": "TransferFailed",
					"type": "error"
				},
				{
					"inputs": [],
					"name": "ZeroAmount",
					"type": "error"
				},
				{
					"anonymous": false,
					"inputs": [
						{
							"indexed": true,
							"internalType": "address",
							"name": "user",
							"type": "address"
						},
						{
							"indexed": false,
							"internalType": "uint256",
							"name": "amount",
							"type": "uint256"
						},
						{
							"indexed": false,
							"internalType": "uint256",
							"name": "newUserBalance",
							"type": "uint256"
						},
						{
							"indexed": false,
							"internalType": "uint256",
							"name": "totalBankBalance",
							"type": "uint256"
						}
					],
					"name": "Deposited",
					"type": "event"
				},
				{
					"anonymous": false,
					"inputs": [
						{
							"indexed": true,
							"internalType": "address",
							"name": "user",
							"type": "address"
						},
						{
							"indexed": false,
							"internalType": "uint256",
							"name": "amount",
							"type": "uint256"
						},
						{
							"indexed": false,
							"internalType": "uint256",
							"name": "newUserBalance",
							"type": "uint256"
						},
						{
							"indexed": false,
							"internalType": "uint256",
							"name": "totalBankBalance",
							"type": "uint256"
						}
					],
					"name": "Withdrawn",
					"type": "event"
				},
				{
					"inputs": [],
					"name": "BANK_CAP",
					"outputs": [
						{
							"internalType": "uint256",
							"name": "",
							"type": "uint256"
						}
					],
					"stateMutability": "view",
					"type": "function"
				},
				{
					"inputs": [],
					"name": "WITHDRAWAL_THRESHOLD",
					"outputs": [
						{
							"internalType": "uint256",
							"name": "",
							"type": "uint256"
						}
					],
					"stateMutability": "view",
					"type": "function"
				},
				{
					"inputs": [],
					"name": "deposit",
					"outputs": [],
					"stateMutability": "payable",
					"type": "function"
				},
				{
					"inputs": [],
					"name": "depositsCount",
					"outputs": [
						{
							"internalType": "uint256",
							"name": "",
							"type": "uint256"
						}
					],
					"stateMutability": "view",
					"type": "function"
				},
				{
					"inputs": [],
					"name": "totalBankBalance",
					"outputs": [
						{
							"internalType": "uint256",
							"name": "",
							"type": "uint256"
						}
					],
					"stateMutability": "view",
					"type": "function"
				},
				{
					"inputs": [
						{
							"internalType": "address",
							"name": "account",
							"type": "address"
						}
					],
					"name": "vaultOf",
					"outputs": [
						{
							"internalType": "uint256",
							"name": "balance",
							"type": "uint256"
						}
					],
					"stateMutability": "view",
					"type": "function"
				},
				{
					"inputs": [
						{
							"internalType": "uint256",
							"name": "amount",
							"type": "uint256"
						}
					],
					"name": "withdraw",
					"outputs": [],
					"stateMutability": "nonpayable",
					"type": "function"
				},
				{
					"inputs": [],
					"name": "withdrawalsCount",
					"outputs": [
						{
							"internalType": "uint256",
							"name": "",
							"type": "uint256"
						}
					],
					"stateMutability": "view",
					"type": "function"
				}
			],
			"devdoc": {
				"custom:security-contact": "tu-email@ejemplo.com",
				"details": "Sigue patrón checks-effects-interactions, usa errores personalizados y eventos.",
				"errors": {
					"ExceedsBankCap(uint256,uint256)": [
						{
							"params": {
								"attempted": "Suma total luego del intento.",
								"cap": "Tope global configurado al desplegar."
							}
						}
					],
					"ExceedsThreshold(uint256,uint256)": [
						{
							"params": {
								"attempted": "Monto solicitado.",
								"threshold": "Umbral inmutable."
							}
						}
					],
					"InsufficientFunds(uint256,uint256)": [
						{
							"params": {
								"attempted": "Monto solicitado.",
								"balance": "Saldo disponible."
							}
						}
					]
				},
				"events": {
					"Deposited(address,uint256,uint256,uint256)": {
						"params": {
							"amount": "Monto depositado en wei.",
							"newUserBalance": "Saldo del usuario luego del depósito.",
							"totalBankBalance": "Saldo total del banco luego del depósito.",
							"user": "Dirección del depositante."
						}
					},
					"Withdrawn(address,uint256,uint256,uint256)": {
						"params": {
							"amount": "Monto retirado en wei.",
							"newUserBalance": "Saldo del usuario luego del retiro.",
							"totalBankBalance": "Saldo total del banco luego del retiro.",
							"user": "Dirección del que retira."
						}
					}
				},
				"kind": "dev",
				"methods": {
					"constructor": {
						"params": {
							"bankCap": "Tope global del banco (wei).",
							"withdrawalThreshold": "Umbral máximo por retiro (wei)."
						}
					},
					"deposit()": {
						"custom:oz-usage": "No usa transfer()/send(); usa call{value:...} con chequeo.",
						"details": "CEI: (checks) -> (effects) -> (interactions). Emite evento."
					},
					"vaultOf(address)": {
						"params": {
							"account": "Dirección a consultar."
						},
						"returns": {
							"balance": "Saldo en wei."
						}
					},
					"withdraw(uint256)": {
						"details": "Usa call con verificación. Emite evento.",
						"params": {
							"amount": "Monto a retirar en wei."
						}
					}
				},
				"stateVariables": {
					"BANK_CAP": {
						"details": "Fijado en el constructor."
					},
					"WITHDRAWAL_THRESHOLD": {
						"details": "Fijado en el constructor."
					},
					"_entered": {
						"details": "Guard simple anti-reentrancy."
					}
				},
				"title": "KipuBank - Bóvedas personales con tope global y umbral por retiro",
				"version": 1
			},
			"evm": {
				"assembly": "    /* \"contracts/KipuBank.sol\":364:6895  contract KipuBank {... */\n  mstore(0x40, 0xc0)\n    /* \"contracts/KipuBank.sol\":3696:3920  constructor(uint256 withdrawalThreshold, uint256 bankCap) {... */\n  callvalue\n  dup1\n  iszero\n  tag_1\n  jumpi\n  0x00\n  dup1\n  revert\ntag_1:\n  pop\n  mload(0x40)\n  sub(codesize, bytecodeSize)\n  dup1\n  bytecodeSize\n  dup4\n  codecopy\n  dup2\n  dup2\n  add\n  0x40\n  mstore\n  dup2\n  add\n  swap1\n  tag_2\n  swap2\n  swap1\n  tag_3\n  jump\t// in\ntag_2:\n    /* \"contracts/KipuBank.sol\":3792:3793  0 */\n  0x00\n    /* \"contracts/KipuBank.sol\":3769:3788  withdrawalThreshold */\n  dup3\n    /* \"contracts/KipuBank.sol\":3769:3793  withdrawalThreshold == 0 */\n  eq\n    /* \"contracts/KipuBank.sol\":3769:3809  withdrawalThreshold == 0 || bankCap == 0 */\n  dup1\n  tag_6\n  jumpi\n  pop\n    /* \"contracts/KipuBank.sol\":3808:3809  0 */\n  0x00\n    /* \"contracts/KipuBank.sol\":3797:3804  bankCap */\n  dup2\n    /* \"contracts/KipuBank.sol\":3797:3809  bankCap == 0 */\n  eq\n    /* \"contracts/KipuBank.sol\":3769:3809  withdrawalThreshold == 0 || bankCap == 0 */\ntag_6:\n    /* \"contracts/KipuBank.sol\":3765:3830  if (withdrawalThreshold == 0 || bankCap == 0) revert ZeroAmount() */\n  iszero\n  tag_7\n  jumpi\n    /* \"contracts/KipuBank.sol\":3818:3830  ZeroAmount() */\n  mload(0x40)\n  0x1f2a200500000000000000000000000000000000000000000000000000000000\n  dup2\n  mstore\n  0x04\n  add\n  mload(0x40)\n  dup1\n  swap2\n  sub\n  swap1\n  revert\n    /* \"contracts/KipuBank.sol\":3765:3830  if (withdrawalThreshold == 0 || bankCap == 0) revert ZeroAmount() */\ntag_7:\n    /* \"contracts/KipuBank.sol\":3864:3883  withdrawalThreshold */\n  dup2\n    /* \"contracts/KipuBank.sol\":3841:3883  WITHDRAWAL_THRESHOLD = withdrawalThreshold */\n  0x80\n  dup2\n  dup2\n  mstore\n  pop\n  pop\n    /* \"contracts/KipuBank.sol\":3905:3912  bankCap */\n  dup1\n    /* \"contracts/KipuBank.sol\":3894:3912  BANK_CAP = bankCap */\n  0xa0\n  dup2\n  dup2\n  mstore\n  pop\n  pop\n    /* \"contracts/KipuBank.sol\":3696:3920  constructor(uint256 withdrawalThreshold, uint256 bankCap) {... */\n  pop\n  pop\n    /* \"contracts/KipuBank.sol\":364:6895  contract KipuBank {... */\n  jump(tag_8)\n    /* \"#utility.yul\":88:205   */\ntag_10:\n    /* \"#utility.yul\":197:198   */\n  0x00\n    /* \"#utility.yul\":194:195   */\n  dup1\n    /* \"#utility.yul\":187:199   */\n  revert\n    /* \"#utility.yul\":334:411   */\ntag_12:\n    /* \"#utility.yul\":371:378   */\n  0x00\n    /* \"#utility.yul\":400:405   */\n  dup2\n    /* \"#utility.yul\":389:405   */\n  swap1\n  pop\n    /* \"#utility.yul\":334:411   */\n  swap2\n  swap1\n  pop\n  jump\t// out\n    /* \"#utility.yul\":417:539   */\ntag_13:\n    /* \"#utility.yul\":490:514   */\n  tag_21\n    /* \"#utility.yul\":508:513   */\n  dup2\n    /* \"#utility.yul\":490:514   */\n  tag_12\n  jump\t// in\ntag_21:\n    /* \"#utility.yul\":483:488   */\n  dup2\n    /* \"#utility.yul\":480:515   */\n  eq\n    /* \"#utility.yul\":470:533   */\n  tag_22\n  jumpi\n    /* \"#utility.yul\":529:530   */\n  0x00\n    /* \"#utility.yul\":526:527   */\n  dup1\n    /* \"#utility.yul\":519:531   */\n  revert\n    /* \"#utility.yul\":470:533   */\ntag_22:\n    /* \"#utility.yul\":417:539   */\n  pop\n  jump\t// out\n    /* \"#utility.yul\":545:688   */\ntag_14:\n    /* \"#utility.yul\":602:607   */\n  0x00\n    /* \"#utility.yul\":633:639   */\n  dup2\n    /* \"#utility.yul\":627:640   */\n  mload\n    /* \"#utility.yul\":618:640   */\n  swap1\n  pop\n    /* \"#utility.yul\":649:682   */\n  tag_24\n    /* \"#utility.yul\":676:681   */\n  dup2\n    /* \"#utility.yul\":649:682   */\n  tag_13\n  jump\t// in\ntag_24:\n    /* \"#utility.yul\":545:688   */\n  swap3\n  swap2\n  pop\n  pop\n  jump\t// out\n    /* \"#utility.yul\":694:1201   */\ntag_3:\n    /* \"#utility.yul\":773:779   */\n  0x00\n    /* \"#utility.yul\":781:787   */\n  dup1\n    /* \"#utility.yul\":830:832   */\n  0x40\n    /* \"#utility.yul\":818:827   */\n  dup4\n    /* \"#utility.yul\":809:816   */\n  dup6\n    /* \"#utility.yul\":805:828   */\n  sub\n    /* \"#utility.yul\":801:833   */\n  slt\n    /* \"#utility.yul\":798:917   */\n  iszero\n  tag_26\n  jumpi\n    /* \"#utility.yul\":836:915   */\n  tag_27\n  tag_10\n  jump\t// in\ntag_27:\n    /* \"#utility.yul\":798:917   */\ntag_26:\n    /* \"#utility.yul\":956:957   */\n  0x00\n    /* \"#utility.yul\":981:1045   */\n  tag_28\n    /* \"#utility.yul\":1037:1044   */\n  dup6\n    /* \"#utility.yul\":1028:1034   */\n  dup3\n    /* \"#utility.yul\":1017:1026   */\n  dup7\n    /* \"#utility.yul\":1013:1035   */\n  add\n    /* \"#utility.yul\":981:1045   */\n  tag_14\n  jump\t// in\ntag_28:\n    /* \"#utility.yul\":971:1045   */\n  swap3\n  pop\n    /* \"#utility.yul\":927:1055   */\n  pop\n    /* \"#utility.yul\":1094:1096   */\n  0x20\n    /* \"#utility.yul\":1120:1184   */\n  tag_29\n    /* \"#utility.yul\":1176:1183   */\n  dup6\n    /* \"#utility.yul\":1167:1173   */\n  dup3\n    /* \"#utility.yul\":1156:1165   */\n  dup7\n    /* \"#utility.yul\":1152:1174   */\n  add\n    /* \"#utility.yul\":1120:1184   */\n  tag_14\n  jump\t// in\ntag_29:\n    /* \"#utility.yul\":1110:1184   */\n  swap2\n  pop\n    /* \"#utility.yul\":1065:1194   */\n  pop\n    /* \"#utility.yul\":694:1201   */\n  swap3\n  pop\n  swap3\n  swap1\n  pop\n  jump\t// out\n    /* \"contracts/KipuBank.sol\":364:6895  contract KipuBank {... */\ntag_8:\n  mload(0x80)\n  mload(0xa0)\n  codecopy(0x00, dataOffset(sub_0), dataSize(sub_0))\n  0x00\n  assignImmutable(\"0x7446b42d7fe1689ec32fc1ca65129d9f21f1979742315d34500a6886f6986bea\")\n  0x00\n  assignImmutable(\"0xe921da22f871c25c63f06c1365385cbb26397f64f79055cdbab32187a9377d16\")\n  return(0x00, dataSize(sub_0))\nstop\n\nsub_0: assembly {\n        /* \"contracts/KipuBank.sol\":364:6895  contract KipuBank {... */\n      mstore(0x40, 0x80)\n      jumpi(tag_1, lt(calldatasize, 0x04))\n      shr(0xe0, calldataload(0x00))\n      dup1\n      0x2e7fbd67\n      gt\n      tag_10\n      jumpi\n      dup1\n      0x2e7fbd67\n      eq\n      tag_6\n      jumpi\n      dup1\n      0x4506e935\n      eq\n      tag_7\n      jumpi\n      dup1\n      0xd0e30db0\n      eq\n      tag_8\n      jumpi\n      dup1\n      0xe28879ee\n      eq\n      tag_9\n      jumpi\n      jump(tag_1)\n    tag_10:\n      dup1\n      0x0709df45\n      eq\n      tag_2\n      jumpi\n      dup1\n      0x0dbad953\n      eq\n      tag_3\n      jumpi\n      dup1\n      0x1977e938\n      eq\n      tag_4\n      jumpi\n      dup1\n      0x2e1a7d4d\n      eq\n      tag_5\n      jumpi\n    tag_1:\n      0x00\n      dup1\n      revert\n        /* \"contracts/KipuBank.sol\":6348:6463  function vaultOf(address account) external view returns (uint256 balance) {... */\n    tag_2:\n      callvalue\n      dup1\n      iszero\n      tag_11\n      jumpi\n      0x00\n      dup1\n      revert\n    tag_11:\n      pop\n      tag_12\n      0x04\n      dup1\n      calldatasize\n      sub\n      dup2\n      add\n      swap1\n      tag_13\n      swap2\n      swap1\n      tag_14\n      jump\t// in\n    tag_13:\n      tag_15\n      jump\t// in\n    tag_12:\n      mload(0x40)\n      tag_16\n      swap2\n      swap1\n      tag_17\n      jump\t// in\n    tag_16:\n      mload(0x40)\n      dup1\n      swap2\n      sub\n      swap1\n      return\n        /* \"contracts/KipuBank.sol\":2906:2939  uint256 public immutable BANK_CAP */\n    tag_3:\n      callvalue\n      dup1\n      iszero\n      tag_18\n      jumpi\n      0x00\n      dup1\n      revert\n    tag_18:\n      pop\n      tag_19\n      tag_20\n      jump\t// in\n    tag_19:\n      mload(0x40)\n      tag_21\n      swap2\n      swap1\n      tag_17\n      jump\t// in\n    tag_21:\n      mload(0x40)\n      dup1\n      swap2\n      sub\n      swap1\n      return\n        /* \"contracts/KipuBank.sol\":3276:3307  uint256 public totalBankBalance */\n    tag_4:\n      callvalue\n      dup1\n      iszero\n      tag_22\n      jumpi\n      0x00\n      dup1\n      revert\n    tag_22:\n      pop\n      tag_23\n      tag_24\n      jump\t// in\n    tag_23:\n      mload(0x40)\n      tag_25\n      swap2\n      swap1\n      tag_17\n      jump\t// in\n    tag_25:\n      mload(0x40)\n      dup1\n      swap2\n      sub\n      swap1\n      return\n        /* \"contracts/KipuBank.sol\":5488:6193  function withdraw(uint256 amount) external nonReentrant {... */\n    tag_5:\n      callvalue\n      dup1\n      iszero\n      tag_26\n      jumpi\n      0x00\n      dup1\n      revert\n    tag_26:\n      pop\n      tag_27\n      0x04\n      dup1\n      calldatasize\n      sub\n      dup2\n      add\n      swap1\n      tag_28\n      swap2\n      swap1\n      tag_29\n      jump\t// in\n    tag_28:\n      tag_30\n      jump\t// in\n    tag_27:\n      stop\n        /* \"contracts/KipuBank.sol\":3183:3214  uint256 public withdrawalsCount */\n    tag_6:\n      callvalue\n      dup1\n      iszero\n      tag_31\n      jumpi\n      0x00\n      dup1\n      revert\n    tag_31:\n      pop\n      tag_32\n      tag_33\n      jump\t// in\n    tag_32:\n      mload(0x40)\n      tag_34\n      swap2\n      swap1\n      tag_17\n      jump\t// in\n    tag_34:\n      mload(0x40)\n      dup1\n      swap2\n      sub\n      swap1\n      return\n        /* \"contracts/KipuBank.sol\":3092:3120  uint256 public depositsCount */\n    tag_7:\n      callvalue\n      dup1\n      iszero\n      tag_35\n      jumpi\n      0x00\n      dup1\n      revert\n    tag_35:\n      pop\n      tag_36\n      tag_37\n      jump\t// in\n    tag_36:\n      mload(0x40)\n      tag_38\n      swap2\n      swap1\n      tag_17\n      jump\t// in\n    tag_38:\n      mload(0x40)\n      dup1\n      swap2\n      sub\n      swap1\n      return\n        /* \"contracts/KipuBank.sol\":4722:5296  function deposit() external payable nonReentrant {... */\n    tag_8:\n      tag_39\n      tag_40\n      jump\t// in\n    tag_39:\n      stop\n        /* \"contracts/KipuBank.sol\":2746:2791  uint256 public immutable WITHDRAWAL_THRESHOLD */\n    tag_9:\n      callvalue\n      dup1\n      iszero\n      tag_41\n      jumpi\n      0x00\n      dup1\n      revert\n    tag_41:\n      pop\n      tag_42\n      tag_43\n      jump\t// in\n    tag_42:\n      mload(0x40)\n      tag_44\n      swap2\n      swap1\n      tag_17\n      jump\t// in\n    tag_44:\n      mload(0x40)\n      dup1\n      swap2\n      sub\n      swap1\n      return\n        /* \"contracts/KipuBank.sol\":6348:6463  function vaultOf(address account) external view returns (uint256 balance) {... */\n    tag_15:\n        /* \"contracts/KipuBank.sol\":6405:6420  uint256 balance */\n      0x00\n        /* \"contracts/KipuBank.sol\":6440:6446  _vault */\n      dup1\n        /* \"contracts/KipuBank.sol\":6440:6455  _vault[account] */\n      0x00\n        /* \"contracts/KipuBank.sol\":6447:6454  account */\n      dup4\n        /* \"contracts/KipuBank.sol\":6440:6455  _vault[account] */\n      0xffffffffffffffffffffffffffffffffffffffff\n      and\n      0xffffffffffffffffffffffffffffffffffffffff\n      and\n      dup2\n      mstore\n      0x20\n      add\n      swap1\n      dup2\n      mstore\n      0x20\n      add\n      0x00\n      keccak256\n      sload\n        /* \"contracts/KipuBank.sol\":6433:6455  return _vault[account] */\n      swap1\n      pop\n        /* \"contracts/KipuBank.sol\":6348:6463  function vaultOf(address account) external view returns (uint256 balance) {... */\n      swap2\n      swap1\n      pop\n      jump\t// out\n        /* \"contracts/KipuBank.sol\":2906:2939  uint256 public immutable BANK_CAP */\n    tag_20:\n      immutable(\"0x7446b42d7fe1689ec32fc1ca65129d9f21f1979742315d34500a6886f6986bea\")\n      dup2\n      jump\t// out\n        /* \"contracts/KipuBank.sol\":3276:3307  uint256 public totalBankBalance */\n    tag_24:\n      sload(0x03)\n      dup2\n      jump\t// out\n        /* \"contracts/KipuBank.sol\":5488:6193  function withdraw(uint256 amount) external nonReentrant {... */\n    tag_30:\n        /* \"contracts/KipuBank.sol\":4211:4219  _entered */\n      0x04\n      0x00\n      swap1\n      sload\n      swap1\n      0x0100\n      exp\n      swap1\n      div\n      0xff\n      and\n        /* \"contracts/KipuBank.sol\":4207:4240  if (_entered) revert Reentrancy() */\n      iszero\n      tag_47\n      jumpi\n        /* \"contracts/KipuBank.sol\":4228:4240  Reentrancy() */\n      mload(0x40)\n      0xab143c0600000000000000000000000000000000000000000000000000000000\n      dup2\n      mstore\n      0x04\n      add\n      mload(0x40)\n      dup1\n      swap2\n      sub\n      swap1\n      revert\n        /* \"contracts/KipuBank.sol\":4207:4240  if (_entered) revert Reentrancy() */\n    tag_47:\n        /* \"contracts/KipuBank.sol\":4262:4266  true */\n      0x01\n        /* \"contracts/KipuBank.sol\":4251:4259  _entered */\n      0x04\n      0x00\n        /* \"contracts/KipuBank.sol\":4251:4266  _entered = true */\n      0x0100\n      exp\n      dup2\n      sload\n      dup2\n      0xff\n      mul\n      not\n      and\n      swap1\n      dup4\n      iszero\n      iszero\n      mul\n      or\n      swap1\n      sstore\n      pop\n        /* \"contracts/KipuBank.sol\":5569:5570  0 */\n      0x00\n        /* \"contracts/KipuBank.sol\":5559:5565  amount */\n      dup2\n        /* \"contracts/KipuBank.sol\":5559:5570  amount == 0 */\n      sub\n        /* \"contracts/KipuBank.sol\":5555:5591  if (amount == 0) revert ZeroAmount() */\n      tag_49\n      jumpi\n        /* \"contracts/KipuBank.sol\":5579:5591  ZeroAmount() */\n      mload(0x40)\n      0x1f2a200500000000000000000000000000000000000000000000000000000000\n      dup2\n      mstore\n      0x04\n      add\n      mload(0x40)\n      dup1\n      swap2\n      sub\n      swap1\n      revert\n        /* \"contracts/KipuBank.sol\":5555:5591  if (amount == 0) revert ZeroAmount() */\n    tag_49:\n        /* \"contracts/KipuBank.sol\":5615:5635  WITHDRAWAL_THRESHOLD */\n      immutable(\"0xe921da22f871c25c63f06c1365385cbb26397f64f79055cdbab32187a9377d16\")\n        /* \"contracts/KipuBank.sol\":5606:5612  amount */\n      dup2\n        /* \"contracts/KipuBank.sol\":5606:5635  amount > WITHDRAWAL_THRESHOLD */\n      gt\n        /* \"contracts/KipuBank.sol\":5602:5690  if (amount > WITHDRAWAL_THRESHOLD) revert ExceedsThreshold(WITHDRAWAL_THRESHOLD, amount) */\n      iszero\n      tag_50\n      jumpi\n        /* \"contracts/KipuBank.sol\":5661:5681  WITHDRAWAL_THRESHOLD */\n      immutable(\"0xe921da22f871c25c63f06c1365385cbb26397f64f79055cdbab32187a9377d16\")\n        /* \"contracts/KipuBank.sol\":5683:5689  amount */\n      dup2\n        /* \"contracts/KipuBank.sol\":5644:5690  ExceedsThreshold(WITHDRAWAL_THRESHOLD, amount) */\n      mload(0x40)\n      0xb4ed2d2b00000000000000000000000000000000000000000000000000000000\n      dup2\n      mstore\n      0x04\n      add\n      tag_51\n      swap3\n      swap2\n      swap1\n      tag_52\n      jump\t// in\n    tag_51:\n      mload(0x40)\n      dup1\n      swap2\n      sub\n      swap1\n      revert\n        /* \"contracts/KipuBank.sol\":5602:5690  if (amount > WITHDRAWAL_THRESHOLD) revert ExceedsThreshold(WITHDRAWAL_THRESHOLD, amount) */\n    tag_50:\n        /* \"contracts/KipuBank.sol\":5703:5714  uint256 bal */\n      0x00\n        /* \"contracts/KipuBank.sol\":5717:5723  _vault */\n      dup1\n        /* \"contracts/KipuBank.sol\":5717:5735  _vault[msg.sender] */\n      0x00\n        /* \"contracts/KipuBank.sol\":5724:5734  msg.sender */\n      caller\n        /* \"contracts/KipuBank.sol\":5717:5735  _vault[msg.sender] */\n      0xffffffffffffffffffffffffffffffffffffffff\n      and\n      0xffffffffffffffffffffffffffffffffffffffff\n      and\n      dup2\n      mstore\n      0x20\n      add\n      swap1\n      dup2\n      mstore\n      0x20\n      add\n      0x00\n      keccak256\n      sload\n        /* \"contracts/KipuBank.sol\":5703:5735  uint256 bal = _vault[msg.sender] */\n      swap1\n      pop\n        /* \"contracts/KipuBank.sol\":5759:5762  bal */\n      dup1\n        /* \"contracts/KipuBank.sol\":5750:5756  amount */\n      dup3\n        /* \"contracts/KipuBank.sol\":5750:5762  amount > bal */\n      gt\n        /* \"contracts/KipuBank.sol\":5746:5801  if (amount > bal) revert InsufficientFunds(bal, amount) */\n      iszero\n      tag_53\n      jumpi\n        /* \"contracts/KipuBank.sol\":5789:5792  bal */\n      dup1\n        /* \"contracts/KipuBank.sol\":5794:5800  amount */\n      dup3\n        /* \"contracts/KipuBank.sol\":5771:5801  InsufficientFunds(bal, amount) */\n      mload(0x40)\n      0x03eb8b5400000000000000000000000000000000000000000000000000000000\n      dup2\n      mstore\n      0x04\n      add\n      tag_54\n      swap3\n      swap2\n      swap1\n      tag_52\n      jump\t// in\n    tag_54:\n      mload(0x40)\n      dup1\n      swap2\n      sub\n      swap1\n      revert\n        /* \"contracts/KipuBank.sol\":5746:5801  if (amount > bal) revert InsufficientFunds(bal, amount) */\n    tag_53:\n        /* \"contracts/KipuBank.sol\":5886:5892  amount */\n      dup2\n        /* \"contracts/KipuBank.sol\":5880:5883  bal */\n      dup2\n        /* \"contracts/KipuBank.sol\":5880:5892  bal - amount */\n      tag_55\n      swap2\n      swap1\n      tag_56\n      jump\t// in\n    tag_55:\n        /* \"contracts/KipuBank.sol\":5859:5865  _vault */\n      0x00\n        /* \"contracts/KipuBank.sol\":5859:5877  _vault[msg.sender] */\n      dup1\n        /* \"contracts/KipuBank.sol\":5866:5876  msg.sender */\n      caller\n        /* \"contracts/KipuBank.sol\":5859:5877  _vault[msg.sender] */\n      0xffffffffffffffffffffffffffffffffffffffff\n      and\n      0xffffffffffffffffffffffffffffffffffffffff\n      and\n      dup2\n      mstore\n      0x20\n      add\n      swap1\n      dup2\n      mstore\n      0x20\n      add\n      0x00\n      keccak256\n        /* \"contracts/KipuBank.sol\":5859:5892  _vault[msg.sender] = bal - amount */\n      dup2\n      swap1\n      sstore\n      pop\n        /* \"contracts/KipuBank.sol\":5923:5929  amount */\n      dup2\n        /* \"contracts/KipuBank.sol\":5903:5919  totalBankBalance */\n      0x03\n      0x00\n        /* \"contracts/KipuBank.sol\":5903:5929  totalBankBalance -= amount */\n      dup3\n      dup3\n      sload\n      tag_57\n      swap2\n      swap1\n      tag_56\n      jump\t// in\n    tag_57:\n      swap3\n      pop\n      pop\n      dup2\n      swap1\n      sstore\n      pop\n        /* \"contracts/KipuBank.sol\":5985:5986  1 */\n      0x01\n        /* \"contracts/KipuBank.sol\":5965:5981  withdrawalsCount */\n      0x02\n      0x00\n        /* \"contracts/KipuBank.sol\":5965:5986  withdrawalsCount += 1 */\n      dup3\n      dup3\n      sload\n      add\n      swap3\n      pop\n      pop\n      dup2\n      swap1\n      sstore\n      pop\n        /* \"contracts/KipuBank.sol\":6058:6100  _safeTransfer(payable(msg.sender), amount) */\n      tag_58\n        /* \"contracts/KipuBank.sol\":6080:6090  msg.sender */\n      caller\n        /* \"contracts/KipuBank.sol\":6093:6099  amount */\n      dup4\n        /* \"contracts/KipuBank.sol\":6058:6071  _safeTransfer */\n      tag_59\n        /* \"contracts/KipuBank.sol\":6058:6100  _safeTransfer(payable(msg.sender), amount) */\n      jump\t// in\n    tag_58:\n        /* \"contracts/KipuBank.sol\":6128:6138  msg.sender */\n      caller\n        /* \"contracts/KipuBank.sol\":6118:6185  Withdrawn(msg.sender, amount, _vault[msg.sender], totalBankBalance) */\n      0xffffffffffffffffffffffffffffffffffffffff\n      and\n      0x75e161b3e824b114fc1a33274bd7091918dd4e639cede50b78b15a4eea956a21\n        /* \"contracts/KipuBank.sol\":6140:6146  amount */\n      dup4\n        /* \"contracts/KipuBank.sol\":6148:6154  _vault */\n      0x00\n        /* \"contracts/KipuBank.sol\":6148:6166  _vault[msg.sender] */\n      dup1\n        /* \"contracts/KipuBank.sol\":6155:6165  msg.sender */\n      caller\n        /* \"contracts/KipuBank.sol\":6148:6166  _vault[msg.sender] */\n      0xffffffffffffffffffffffffffffffffffffffff\n      and\n      0xffffffffffffffffffffffffffffffffffffffff\n      and\n      dup2\n      mstore\n      0x20\n      add\n      swap1\n      dup2\n      mstore\n      0x20\n      add\n      0x00\n      keccak256\n      sload\n        /* \"contracts/KipuBank.sol\":6168:6184  totalBankBalance */\n      sload(0x03)\n        /* \"contracts/KipuBank.sol\":6118:6185  Withdrawn(msg.sender, amount, _vault[msg.sender], totalBankBalance) */\n      mload(0x40)\n      tag_60\n      swap4\n      swap3\n      swap2\n      swap1\n      tag_61\n      jump\t// in\n    tag_60:\n      mload(0x40)\n      dup1\n      swap2\n      sub\n      swap1\n      log2\n        /* \"contracts/KipuBank.sol\":5544:6193  {... */\n      pop\n        /* \"contracts/KipuBank.sol\":4300:4305  false */\n      0x00\n        /* \"contracts/KipuBank.sol\":4289:4297  _entered */\n      0x04\n      0x00\n        /* \"contracts/KipuBank.sol\":4289:4305  _entered = false */\n      0x0100\n      exp\n      dup2\n      sload\n      dup2\n      0xff\n      mul\n      not\n      and\n      swap1\n      dup4\n      iszero\n      iszero\n      mul\n      or\n      swap1\n      sstore\n      pop\n        /* \"contracts/KipuBank.sol\":5488:6193  function withdraw(uint256 amount) external nonReentrant {... */\n      pop\n      jump\t// out\n        /* \"contracts/KipuBank.sol\":3183:3214  uint256 public withdrawalsCount */\n    tag_33:\n      sload(0x02)\n      dup2\n      jump\t// out\n        /* \"contracts/KipuBank.sol\":3092:3120  uint256 public depositsCount */\n    tag_37:\n      sload(0x01)\n      dup2\n      jump\t// out\n        /* \"contracts/KipuBank.sol\":4722:5296  function deposit() external payable nonReentrant {... */\n    tag_40:\n        /* \"contracts/KipuBank.sol\":4211:4219  _entered */\n      0x04\n      0x00\n      swap1\n      sload\n      swap1\n      0x0100\n      exp\n      swap1\n      div\n      0xff\n      and\n        /* \"contracts/KipuBank.sol\":4207:4240  if (_entered) revert Reentrancy() */\n      iszero\n      tag_63\n      jumpi\n        /* \"contracts/KipuBank.sol\":4228:4240  Reentrancy() */\n      mload(0x40)\n      0xab143c0600000000000000000000000000000000000000000000000000000000\n      dup2\n      mstore\n      0x04\n      add\n      mload(0x40)\n      dup1\n      swap2\n      sub\n      swap1\n      revert\n        /* \"contracts/KipuBank.sol\":4207:4240  if (_entered) revert Reentrancy() */\n    tag_63:\n        /* \"contracts/KipuBank.sol\":4262:4266  true */\n      0x01\n        /* \"contracts/KipuBank.sol\":4251:4259  _entered */\n      0x04\n      0x00\n        /* \"contracts/KipuBank.sol\":4251:4266  _entered = true */\n      0x0100\n      exp\n      dup2\n      sload\n      dup2\n      0xff\n      mul\n      not\n      and\n      swap1\n      dup4\n      iszero\n      iszero\n      mul\n      or\n      swap1\n      sstore\n      pop\n        /* \"contracts/KipuBank.sol\":4799:4800  0 */\n      0x00\n        /* \"contracts/KipuBank.sol\":4786:4795  msg.value */\n      callvalue\n        /* \"contracts/KipuBank.sol\":4786:4800  msg.value == 0 */\n      sub\n        /* \"contracts/KipuBank.sol\":4782:4821  if (msg.value == 0) revert ZeroAmount() */\n      tag_65\n      jumpi\n        /* \"contracts/KipuBank.sol\":4809:4821  ZeroAmount() */\n      mload(0x40)\n      0x1f2a200500000000000000000000000000000000000000000000000000000000\n      dup2\n      mstore\n      0x04\n      add\n      mload(0x40)\n      dup1\n      swap2\n      sub\n      swap1\n      revert\n        /* \"contracts/KipuBank.sol\":4782:4821  if (msg.value == 0) revert ZeroAmount() */\n    tag_65:\n        /* \"contracts/KipuBank.sol\":4853:4869  uint256 newTotal */\n      0x00\n        /* \"contracts/KipuBank.sol\":4891:4900  msg.value */\n      callvalue\n        /* \"contracts/KipuBank.sol\":4872:4888  totalBankBalance */\n      sload(0x03)\n        /* \"contracts/KipuBank.sol\":4872:4900  totalBankBalance + msg.value */\n      tag_66\n      swap2\n      swap1\n      tag_67\n      jump\t// in\n    tag_66:\n        /* \"contracts/KipuBank.sol\":4853:4900  uint256 newTotal = totalBankBalance + msg.value */\n      swap1\n      pop\n        /* \"contracts/KipuBank.sol\":4926:4934  BANK_CAP */\n      immutable(\"0x7446b42d7fe1689ec32fc1ca65129d9f21f1979742315d34500a6886f6986bea\")\n        /* \"contracts/KipuBank.sol\":4915:4923  newTotal */\n      dup2\n        /* \"contracts/KipuBank.sol\":4915:4934  newTotal > BANK_CAP */\n      gt\n        /* \"contracts/KipuBank.sol\":4911:4977  if (newTotal > BANK_CAP) revert ExceedsBankCap(BANK_CAP, newTotal) */\n      iszero\n      tag_68\n      jumpi\n        /* \"contracts/KipuBank.sol\":4958:4966  BANK_CAP */\n      immutable(\"0x7446b42d7fe1689ec32fc1ca65129d9f21f1979742315d34500a6886f6986bea\")\n        /* \"contracts/KipuBank.sol\":4968:4976  newTotal */\n      dup2\n        /* \"contracts/KipuBank.sol\":4943:4977  ExceedsBankCap(BANK_CAP, newTotal) */\n      mload(0x40)\n      0x4274ef7700000000000000000000000000000000000000000000000000000000\n      dup2\n      mstore\n      0x04\n      add\n      tag_69\n      swap3\n      swap2\n      swap1\n      tag_52\n      jump\t// in\n    tag_69:\n      mload(0x40)\n      dup1\n      swap2\n      sub\n      swap1\n      revert\n        /* \"contracts/KipuBank.sol\":4911:4977  if (newTotal > BANK_CAP) revert ExceedsBankCap(BANK_CAP, newTotal) */\n    tag_68:\n        /* \"contracts/KipuBank.sol\":5032:5041  msg.value */\n      callvalue\n        /* \"contracts/KipuBank.sol\":5010:5016  _vault */\n      0x00\n        /* \"contracts/KipuBank.sol\":5010:5028  _vault[msg.sender] */\n      dup1\n        /* \"contracts/KipuBank.sol\":5017:5027  msg.sender */\n      caller\n        /* \"contracts/KipuBank.sol\":5010:5028  _vault[msg.sender] */\n      0xffffffffffffffffffffffffffffffffffffffff\n      and\n      0xffffffffffffffffffffffffffffffffffffffff\n      and\n      dup2\n      mstore\n      0x20\n      add\n      swap1\n      dup2\n      mstore\n      0x20\n      add\n      0x00\n      keccak256\n      0x00\n        /* \"contracts/KipuBank.sol\":5010:5041  _vault[msg.sender] += msg.value */\n      dup3\n      dup3\n      sload\n      tag_70\n      swap2\n      swap1\n      tag_67\n      jump\t// in\n    tag_70:\n      swap3\n      pop\n      pop\n      dup2\n      swap1\n      sstore\n      pop\n        /* \"contracts/KipuBank.sol\":5071:5079  newTotal */\n      dup1\n        /* \"contracts/KipuBank.sol\":5052:5068  totalBankBalance */\n      0x03\n        /* \"contracts/KipuBank.sol\":5052:5079  totalBankBalance = newTotal */\n      dup2\n      swap1\n      sstore\n      pop\n        /* \"contracts/KipuBank.sol\":5132:5133  1 */\n      0x01\n        /* \"contracts/KipuBank.sol\":5115:5128  depositsCount */\n      dup1\n      0x00\n        /* \"contracts/KipuBank.sol\":5115:5133  depositsCount += 1 */\n      dup3\n      dup3\n      sload\n      add\n      swap3\n      pop\n      pop\n      dup2\n      swap1\n      sstore\n      pop\n        /* \"contracts/KipuBank.sol\":5228:5238  msg.sender */\n      caller\n        /* \"contracts/KipuBank.sol\":5218:5288  Deposited(msg.sender, msg.value, _vault[msg.sender], totalBankBalance) */\n      0xffffffffffffffffffffffffffffffffffffffff\n      and\n      0x91ede45f04a37a7c170f5c1207df3b6bc748dc1e04ad5e917a241d0f52feada3\n        /* \"contracts/KipuBank.sol\":5240:5249  msg.value */\n      callvalue\n        /* \"contracts/KipuBank.sol\":5251:5257  _vault */\n      0x00\n        /* \"contracts/KipuBank.sol\":5251:5269  _vault[msg.sender] */\n      dup1\n        /* \"contracts/KipuBank.sol\":5258:5268  msg.sender */\n      caller\n        /* \"contracts/KipuBank.sol\":5251:5269  _vault[msg.sender] */\n      0xffffffffffffffffffffffffffffffffffffffff\n      and\n      0xffffffffffffffffffffffffffffffffffffffff\n      and\n      dup2\n      mstore\n      0x20\n      add\n      swap1\n      dup2\n      mstore\n      0x20\n      add\n      0x00\n      keccak256\n      sload\n        /* \"contracts/KipuBank.sol\":5271:5287  totalBankBalance */\n      sload(0x03)\n        /* \"contracts/KipuBank.sol\":5218:5288  Deposited(msg.sender, msg.value, _vault[msg.sender], totalBankBalance) */\n      mload(0x40)\n      tag_71\n      swap4\n      swap3\n      swap2\n      swap1\n      tag_61\n      jump\t// in\n    tag_71:\n      mload(0x40)\n      dup1\n      swap2\n      sub\n      swap1\n      log2\n        /* \"contracts/KipuBank.sol\":4771:5296  {... */\n      pop\n        /* \"contracts/KipuBank.sol\":4300:4305  false */\n      0x00\n        /* \"contracts/KipuBank.sol\":4289:4297  _entered */\n      0x04\n      0x00\n        /* \"contracts/KipuBank.sol\":4289:4305  _entered = false */\n      0x0100\n      exp\n      dup2\n      sload\n      dup2\n      0xff\n      mul\n      not\n      and\n      swap1\n      dup4\n      iszero\n      iszero\n      mul\n      or\n      swap1\n      sstore\n      pop\n        /* \"contracts/KipuBank.sol\":4722:5296  function deposit() external payable nonReentrant {... */\n      jump\t// out\n        /* \"contracts/KipuBank.sol\":2746:2791  uint256 public immutable WITHDRAWAL_THRESHOLD */\n    tag_43:\n      immutable(\"0xe921da22f871c25c63f06c1365385cbb26397f64f79055cdbab32187a9377d16\")\n      dup2\n      jump\t// out\n        /* \"contracts/KipuBank.sol\":6723:6892  function _safeTransfer(address payable to, uint256 amount) private {... */\n    tag_59:\n        /* \"contracts/KipuBank.sol\":6802:6809  bool ok */\n      0x00\n        /* \"contracts/KipuBank.sol\":6815:6817  to */\n      dup3\n        /* \"contracts/KipuBank.sol\":6815:6822  to.call */\n      0xffffffffffffffffffffffffffffffffffffffff\n      and\n        /* \"contracts/KipuBank.sol\":6830:6836  amount */\n      dup3\n        /* \"contracts/KipuBank.sol\":6815:6841  to.call{value: amount}(\"\") */\n      mload(0x40)\n      tag_73\n      swap1\n      tag_74\n      jump\t// in\n    tag_73:\n      0x00\n      mload(0x40)\n      dup1\n      dup4\n      sub\n      dup2\n      dup6\n      dup8\n      gas\n      call\n      swap3\n      pop\n      pop\n      pop\n      returndatasize\n      dup1\n      0x00\n      dup2\n      eq\n      tag_77\n      jumpi\n      mload(0x40)\n      swap2\n      pop\n      and(add(returndatasize, 0x3f), not(0x1f))\n      dup3\n      add\n      0x40\n      mstore\n      returndatasize\n      dup3\n      mstore\n      returndatasize\n      0x00\n      0x20\n      dup5\n      add\n      returndatacopy\n      jump(tag_76)\n    tag_77:\n      0x60\n      swap2\n      pop\n    tag_76:\n      pop\n        /* \"contracts/KipuBank.sol\":6801:6841  (bool ok, ) = to.call{value: amount}(\"\") */\n      pop\n      swap1\n      pop\n        /* \"contracts/KipuBank.sol\":6857:6859  ok */\n      dup1\n        /* \"contracts/KipuBank.sol\":6852:6884  if (!ok) revert TransferFailed() */\n      tag_78\n      jumpi\n        /* \"contracts/KipuBank.sol\":6868:6884  TransferFailed() */\n      mload(0x40)\n      0x90b8ec1800000000000000000000000000000000000000000000000000000000\n      dup2\n      mstore\n      0x04\n      add\n      mload(0x40)\n      dup1\n      swap2\n      sub\n      swap1\n      revert\n        /* \"contracts/KipuBank.sol\":6852:6884  if (!ok) revert TransferFailed() */\n    tag_78:\n        /* \"contracts/KipuBank.sol\":6790:6892  {... */\n      pop\n        /* \"contracts/KipuBank.sol\":6723:6892  function _safeTransfer(address payable to, uint256 amount) private {... */\n      pop\n      pop\n      jump\t// out\n        /* \"#utility.yul\":88:205   */\n    tag_80:\n        /* \"#utility.yul\":197:198   */\n      0x00\n        /* \"#utility.yul\":194:195   */\n      dup1\n        /* \"#utility.yul\":187:199   */\n      revert\n        /* \"#utility.yul\":334:460   */\n    tag_82:\n        /* \"#utility.yul\":371:378   */\n      0x00\n        /* \"#utility.yul\":411:453   */\n      0xffffffffffffffffffffffffffffffffffffffff\n        /* \"#utility.yul\":404:409   */\n      dup3\n        /* \"#utility.yul\":400:454   */\n      and\n        /* \"#utility.yul\":389:454   */\n      swap1\n      pop\n        /* \"#utility.yul\":334:460   */\n      swap2\n      swap1\n      pop\n      jump\t// out\n        /* \"#utility.yul\":466:562   */\n    tag_83:\n        /* \"#utility.yul\":503:510   */\n      0x00\n        /* \"#utility.yul\":532:556   */\n      tag_100\n        /* \"#utility.yul\":550:555   */\n      dup3\n        /* \"#utility.yul\":532:556   */\n      tag_82\n      jump\t// in\n    tag_100:\n        /* \"#utility.yul\":521:556   */\n      swap1\n      pop\n        /* \"#utility.yul\":466:562   */\n      swap2\n      swap1\n      pop\n      jump\t// out\n        /* \"#utility.yul\":568:690   */\n    tag_84:\n        /* \"#utility.yul\":641:665   */\n      tag_102\n        /* \"#utility.yul\":659:664   */\n      dup2\n        /* \"#utility.yul\":641:665   */\n      tag_83\n      jump\t// in\n    tag_102:\n        /* \"#utility.yul\":634:639   */\n      dup2\n        /* \"#utility.yul\":631:666   */\n      eq\n        /* \"#utility.yul\":621:684   */\n      tag_103\n      jumpi\n        /* \"#utility.yul\":680:681   */\n      0x00\n        /* \"#utility.yul\":677:678   */\n      dup1\n        /* \"#utility.yul\":670:682   */\n      revert\n        /* \"#utility.yul\":621:684   */\n    tag_103:\n        /* \"#utility.yul\":568:690   */\n      pop\n      jump\t// out\n        /* \"#utility.yul\":696:835   */\n    tag_85:\n        /* \"#utility.yul\":742:747   */\n      0x00\n        /* \"#utility.yul\":780:786   */\n      dup2\n        /* \"#utility.yul\":767:787   */\n      calldataload\n        /* \"#utility.yul\":758:787   */\n      swap1\n      pop\n        /* \"#utility.yul\":796:829   */\n      tag_105\n        /* \"#utility.yul\":823:828   */\n      dup2\n        /* \"#utility.yul\":796:829   */\n      tag_84\n      jump\t// in\n    tag_105:\n        /* \"#utility.yul\":696:835   */\n      swap3\n      swap2\n      pop\n      pop\n      jump\t// out\n        /* \"#utility.yul\":841:1170   */\n    tag_14:\n        /* \"#utility.yul\":900:906   */\n      0x00\n        /* \"#utility.yul\":949:951   */\n      0x20\n        /* \"#utility.yul\":937:946   */\n      dup3\n        /* \"#utility.yul\":928:935   */\n      dup5\n        /* \"#utility.yul\":924:947   */\n      sub\n        /* \"#utility.yul\":920:952   */\n      slt\n        /* \"#utility.yul\":917:1036   */\n      iszero\n      tag_107\n      jumpi\n        /* \"#utility.yul\":955:1034   */\n      tag_108\n      tag_80\n      jump\t// in\n    tag_108:\n        /* \"#utility.yul\":917:1036   */\n    tag_107:\n        /* \"#utility.yul\":1075:1076   */\n      0x00\n        /* \"#utility.yul\":1100:1153   */\n      tag_109\n        /* \"#utility.yul\":1145:1152   */\n      dup5\n        /* \"#utility.yul\":1136:1142   */\n      dup3\n        /* \"#utility.yul\":1125:1134   */\n      dup6\n        /* \"#utility.yul\":1121:1143   */\n      add\n        /* \"#utility.yul\":1100:1153   */\n      tag_85\n      jump\t// in\n    tag_109:\n        /* \"#utility.yul\":1090:1153   */\n      swap2\n      pop\n        /* \"#utility.yul\":1046:1163   */\n      pop\n        /* \"#utility.yul\":841:1170   */\n      swap3\n      swap2\n      pop\n      pop\n      jump\t// out\n        /* \"#utility.yul\":1176:1253   */\n    tag_86:\n        /* \"#utility.yul\":1213:1220   */\n      0x00\n        /* \"#utility.yul\":1242:1247   */\n      dup2\n        /* \"#utility.yul\":1231:1247   */\n      swap1\n      pop\n        /* \"#utility.yul\":1176:1253   */\n      swap2\n      swap1\n      pop\n      jump\t// out\n        /* \"#utility.yul\":1259:1377   */\n    tag_87:\n        /* \"#utility.yul\":1346:1370   */\n      tag_112\n        /* \"#utility.yul\":1364:1369   */\n      dup2\n        /* \"#utility.yul\":1346:1370   */\n      tag_86\n      jump\t// in\n    tag_112:\n        /* \"#utility.yul\":1341:1344   */\n      dup3\n        /* \"#utility.yul\":1334:1371   */\n      mstore\n        /* \"#utility.yul\":1259:1377   */\n      pop\n      pop\n      jump\t// out\n        /* \"#utility.yul\":1383:1605   */\n    tag_17:\n        /* \"#utility.yul\":1476:1480   */\n      0x00\n        /* \"#utility.yul\":1514:1516   */\n      0x20\n        /* \"#utility.yul\":1503:1512   */\n      dup3\n        /* \"#utility.yul\":1499:1517   */\n      add\n        /* \"#utility.yul\":1491:1517   */\n      swap1\n      pop\n        /* \"#utility.yul\":1527:1598   */\n      tag_114\n        /* \"#utility.yul\":1595:1596   */\n      0x00\n        /* \"#utility.yul\":1584:1593   */\n      dup4\n        /* \"#utility.yul\":1580:1597   */\n      add\n        /* \"#utility.yul\":1571:1577   */\n      dup5\n        /* \"#utility.yul\":1527:1598   */\n      tag_87\n      jump\t// in\n    tag_114:\n        /* \"#utility.yul\":1383:1605   */\n      swap3\n      swap2\n      pop\n      pop\n      jump\t// out\n        /* \"#utility.yul\":1611:1733   */\n    tag_88:\n        /* \"#utility.yul\":1684:1708   */\n      tag_116\n        /* \"#utility.yul\":1702:1707   */\n      dup2\n        /* \"#utility.yul\":1684:1708   */\n      tag_86\n      jump\t// in\n    tag_116:\n        /* \"#utility.yul\":1677:1682   */\n      dup2\n        /* \"#utility.yul\":1674:1709   */\n      eq\n        /* \"#utility.yul\":1664:1727   */\n      tag_117\n      jumpi\n        /* \"#utility.yul\":1723:1724   */\n      0x00\n        /* \"#utility.yul\":1720:1721   */\n      dup1\n        /* \"#utility.yul\":1713:1725   */\n      revert\n        /* \"#utility.yul\":1664:1727   */\n    tag_117:\n        /* \"#utility.yul\":1611:1733   */\n      pop\n      jump\t// out\n        /* \"#utility.yul\":1739:1878   */\n    tag_89:\n        /* \"#utility.yul\":1785:1790   */\n      0x00\n        /* \"#utility.yul\":1823:1829   */\n      dup2\n        /* \"#utility.yul\":1810:1830   */\n      calldataload\n        /* \"#utility.yul\":1801:1830   */\n      swap1\n      pop\n        /* \"#utility.yul\":1839:1872   */\n      tag_119\n        /* \"#utility.yul\":1866:1871   */\n      dup2\n        /* \"#utility.yul\":1839:1872   */\n      tag_88\n      jump\t// in\n    tag_119:\n        /* \"#utility.yul\":1739:1878   */\n      swap3\n      swap2\n      pop\n      pop\n      jump\t// out\n        /* \"#utility.yul\":1884:2213   */\n    tag_29:\n        /* \"#utility.yul\":1943:1949   */\n      0x00\n        /* \"#utility.yul\":1992:1994   */\n      0x20\n        /* \"#utility.yul\":1980:1989   */\n      dup3\n        /* \"#utility.yul\":1971:1978   */\n      dup5\n        /* \"#utility.yul\":1967:1990   */\n      sub\n        /* \"#utility.yul\":1963:1995   */\n      slt\n        /* \"#utility.yul\":1960:2079   */\n      iszero\n      tag_121\n      jumpi\n        /* \"#utility.yul\":1998:2077   */\n      tag_122\n      tag_80\n      jump\t// in\n    tag_122:\n        /* \"#utility.yul\":1960:2079   */\n    tag_121:\n        /* \"#utility.yul\":2118:2119   */\n      0x00\n        /* \"#utility.yul\":2143:2196   */\n      tag_123\n        /* \"#utility.yul\":2188:2195   */\n      dup5\n        /* \"#utility.yul\":2179:2185   */\n      dup3\n        /* \"#utility.yul\":2168:2177   */\n      dup6\n        /* \"#utility.yul\":2164:2186   */\n      add\n        /* \"#utility.yul\":2143:2196   */\n      tag_89\n      jump\t// in\n    tag_123:\n        /* \"#utility.yul\":2133:2196   */\n      swap2\n      pop\n        /* \"#utility.yul\":2089:2206   */\n      pop\n        /* \"#utility.yul\":1884:2213   */\n      swap3\n      swap2\n      pop\n      pop\n      jump\t// out\n        /* \"#utility.yul\":2219:2551   */\n    tag_52:\n        /* \"#utility.yul\":2340:2344   */\n      0x00\n        /* \"#utility.yul\":2378:2380   */\n      0x40\n        /* \"#utility.yul\":2367:2376   */\n      dup3\n        /* \"#utility.yul\":2363:2381   */\n      add\n        /* \"#utility.yul\":2355:2381   */\n      swap1\n      pop\n        /* \"#utility.yul\":2391:2462   */\n      tag_125\n        /* \"#utility.yul\":2459:2460   */\n      0x00\n        /* \"#utility.yul\":2448:2457   */\n      dup4\n        /* \"#utility.yul\":2444:2461   */\n      add\n        /* \"#utility.yul\":2435:2441   */\n      dup6\n        /* \"#utility.yul\":2391:2462   */\n      tag_87\n      jump\t// in\n    tag_125:\n        /* \"#utility.yul\":2472:2544   */\n      tag_126\n        /* \"#utility.yul\":2540:2542   */\n      0x20\n        /* \"#utility.yul\":2529:2538   */\n      dup4\n        /* \"#utility.yul\":2525:2543   */\n      add\n        /* \"#utility.yul\":2516:2522   */\n      dup5\n        /* \"#utility.yul\":2472:2544   */\n      tag_87\n      jump\t// in\n    tag_126:\n        /* \"#utility.yul\":2219:2551   */\n      swap4\n      swap3\n      pop\n      pop\n      pop\n      jump\t// out\n        /* \"#utility.yul\":2557:2737   */\n    tag_90:\n        /* \"#utility.yul\":2605:2682   */\n      0x4e487b7100000000000000000000000000000000000000000000000000000000\n        /* \"#utility.yul\":2602:2603   */\n      0x00\n        /* \"#utility.yul\":2595:2683   */\n      mstore\n        /* \"#utility.yul\":2702:2706   */\n      0x11\n        /* \"#utility.yul\":2699:2700   */\n      0x04\n        /* \"#utility.yul\":2692:2707   */\n      mstore\n        /* \"#utility.yul\":2726:2730   */\n      0x24\n        /* \"#utility.yul\":2723:2724   */\n      0x00\n        /* \"#utility.yul\":2716:2731   */\n      revert\n        /* \"#utility.yul\":2743:2937   */\n    tag_56:\n        /* \"#utility.yul\":2783:2787   */\n      0x00\n        /* \"#utility.yul\":2803:2823   */\n      tag_129\n        /* \"#utility.yul\":2821:2822   */\n      dup3\n        /* \"#utility.yul\":2803:2823   */\n      tag_86\n      jump\t// in\n    tag_129:\n        /* \"#utility.yul\":2798:2823   */\n      swap2\n      pop\n        /* \"#utility.yul\":2837:2857   */\n      tag_130\n        /* \"#utility.yul\":2855:2856   */\n      dup4\n        /* \"#utility.yul\":2837:2857   */\n      tag_86\n      jump\t// in\n    tag_130:\n        /* \"#utility.yul\":2832:2857   */\n      swap3\n      pop\n        /* \"#utility.yul\":2881:2882   */\n      dup3\n        /* \"#utility.yul\":2878:2879   */\n      dup3\n        /* \"#utility.yul\":2874:2883   */\n      sub\n        /* \"#utility.yul\":2866:2883   */\n      swap1\n      pop\n        /* \"#utility.yul\":2905:2906   */\n      dup2\n        /* \"#utility.yul\":2899:2903   */\n      dup2\n        /* \"#utility.yul\":2896:2907   */\n      gt\n        /* \"#utility.yul\":2893:2930   */\n      iszero\n      tag_131\n      jumpi\n        /* \"#utility.yul\":2910:2928   */\n      tag_132\n      tag_90\n      jump\t// in\n    tag_132:\n        /* \"#utility.yul\":2893:2930   */\n    tag_131:\n        /* \"#utility.yul\":2743:2937   */\n      swap3\n      swap2\n      pop\n      pop\n      jump\t// out\n        /* \"#utility.yul\":2943:3385   */\n    tag_61:\n        /* \"#utility.yul\":3092:3096   */\n      0x00\n        /* \"#utility.yul\":3130:3132   */\n      0x60\n        /* \"#utility.yul\":3119:3128   */\n      dup3\n        /* \"#utility.yul\":3115:3133   */\n      add\n        /* \"#utility.yul\":3107:3133   */\n      swap1\n      pop\n        /* \"#utility.yul\":3143:3214   */\n      tag_134\n        /* \"#utility.yul\":3211:3212   */\n      0x00\n        /* \"#utility.yul\":3200:3209   */\n      dup4\n        /* \"#utility.yul\":3196:3213   */\n      add\n        /* \"#utility.yul\":3187:3193   */\n      dup7\n        /* \"#utility.yul\":3143:3214   */\n      tag_87\n      jump\t// in\n    tag_134:\n        /* \"#utility.yul\":3224:3296   */\n      tag_135\n        /* \"#utility.yul\":3292:3294   */\n      0x20\n        /* \"#utility.yul\":3281:3290   */\n      dup4\n        /* \"#utility.yul\":3277:3295   */\n      add\n        /* \"#utility.yul\":3268:3274   */\n      dup6\n        /* \"#utility.yul\":3224:3296   */\n      tag_87\n      jump\t// in\n    tag_135:\n        /* \"#utility.yul\":3306:3378   */\n      tag_136\n        /* \"#utility.yul\":3374:3376   */\n      0x40\n        /* \"#utility.yul\":3363:3372   */\n      dup4\n        /* \"#utility.yul\":3359:3377   */\n      add\n        /* \"#utility.yul\":3350:3356   */\n      dup5\n        /* \"#utility.yul\":3306:3378   */\n      tag_87\n      jump\t// in\n    tag_136:\n        /* \"#utility.yul\":2943:3385   */\n      swap5\n      swap4\n      pop\n      pop\n      pop\n      pop\n      jump\t// out\n        /* \"#utility.yul\":3391:3582   */\n    tag_67:\n        /* \"#utility.yul\":3431:3434   */\n      0x00\n        /* \"#utility.yul\":3450:3470   */\n      tag_138\n        /* \"#utility.yul\":3468:3469   */\n      dup3\n        /* \"#utility.yul\":3450:3470   */\n      tag_86\n      jump\t// in\n    tag_138:\n        /* \"#utility.yul\":3445:3470   */\n      swap2\n      pop\n        /* \"#utility.yul\":3484:3504   */\n      tag_139\n        /* \"#utility.yul\":3502:3503   */\n      dup4\n        /* \"#utility.yul\":3484:3504   */\n      tag_86\n      jump\t// in\n    tag_139:\n        /* \"#utility.yul\":3479:3504   */\n      swap3\n      pop\n        /* \"#utility.yul\":3527:3528   */\n      dup3\n        /* \"#utility.yul\":3524:3525   */\n      dup3\n        /* \"#utility.yul\":3520:3529   */\n      add\n        /* \"#utility.yul\":3513:3529   */\n      swap1\n      pop\n        /* \"#utility.yul\":3548:3551   */\n      dup1\n        /* \"#utility.yul\":3545:3546   */\n      dup3\n        /* \"#utility.yul\":3542:3552   */\n      gt\n        /* \"#utility.yul\":3539:3575   */\n      iszero\n      tag_140\n      jumpi\n        /* \"#utility.yul\":3555:3573   */\n      tag_141\n      tag_90\n      jump\t// in\n    tag_141:\n        /* \"#utility.yul\":3539:3575   */\n    tag_140:\n        /* \"#utility.yul\":3391:3582   */\n      swap3\n      swap2\n      pop\n      pop\n      jump\t// out\n        /* \"#utility.yul\":3588:3735   */\n    tag_91:\n        /* \"#utility.yul\":3689:3700   */\n      0x00\n        /* \"#utility.yul\":3726:3729   */\n      dup2\n        /* \"#utility.yul\":3711:3729   */\n      swap1\n      pop\n        /* \"#utility.yul\":3588:3735   */\n      swap3\n      swap2\n      pop\n      pop\n      jump\t// out\n        /* \"#utility.yul\":3741:3855   */\n    tag_92:\n      pop\n      jump\t// out\n        /* \"#utility.yul\":3861:4259   */\n    tag_93:\n        /* \"#utility.yul\":4020:4023   */\n      0x00\n        /* \"#utility.yul\":4041:4124   */\n      tag_145\n        /* \"#utility.yul\":4122:4123   */\n      0x00\n        /* \"#utility.yul\":4117:4120   */\n      dup4\n        /* \"#utility.yul\":4041:4124   */\n      tag_91\n      jump\t// in\n    tag_145:\n        /* \"#utility.yul\":4034:4124   */\n      swap2\n      pop\n        /* \"#utility.yul\":4133:4226   */\n      tag_146\n        /* \"#utility.yul\":4222:4225   */\n      dup3\n        /* \"#utility.yul\":4133:4226   */\n      tag_92\n      jump\t// in\n    tag_146:\n        /* \"#utility.yul\":4251:4252   */\n      0x00\n        /* \"#utility.yul\":4246:4249   */\n      dup3\n        /* \"#utility.yul\":4242:4253   */\n      add\n        /* \"#utility.yul\":4235:4253   */\n      swap1\n      pop\n        /* \"#utility.yul\":3861:4259   */\n      swap2\n      swap1\n      pop\n      jump\t// out\n        /* \"#utility.yul\":4265:4644   */\n    tag_74:\n        /* \"#utility.yul\":4449:4452   */\n      0x00\n        /* \"#utility.yul\":4471:4618   */\n      tag_148\n        /* \"#utility.yul\":4614:4617   */\n      dup3\n        /* \"#utility.yul\":4471:4618   */\n      tag_93\n      jump\t// in\n    tag_148:\n        /* \"#utility.yul\":4464:4618   */\n      swap2\n      pop\n        /* \"#utility.yul\":4635:4638   */\n      dup2\n        /* \"#utility.yul\":4628:4638   */\n      swap1\n      pop\n        /* \"#utility.yul\":4265:4644   */\n      swap2\n      swap1\n      pop\n      jump\t// out\n\n    auxdata: 0xa2646970667358221220dceaaf47de2711ca23affc61cf5a717be6b20a7d9f99b9f3bc897fddc97a46be64736f6c63430008180033\n}\n",
				"bytecode": {
					"linkReferences": {},
					"object": "60c060405234801561000f575f80fd5b50604051610bcb380380610bcb833981810160405281019061003191906100c3565b5f82148061003e57505f81145b15610075576040517f1f2a200500000000000000000000000000000000000000000000000000000000815260040160405180910390fd5b81608081815250508060a081815250505050610101565b5f80fd5b5f819050919050565b6100a281610090565b81146100ac575f80fd5b50565b5f815190506100bd81610099565b92915050565b5f80604083850312156100d9576100d861008c565b5b5f6100e6858286016100af565b92505060206100f7858286016100af565b9150509250929050565b60805160a051610a8d61013e5f395f8181610205015281816105b701526105df01525f81816102c8015281816102f001526107520152610a8d5ff3fe60806040526004361061007a575f3560e01c80632e7fbd671161004d5780632e7fbd67146101365780634506e93514610160578063d0e30db01461018a578063e28879ee146101945761007a565b80630709df451461007e5780630dbad953146100ba5780631977e938146100e45780632e1a7d4d1461010e575b5f80fd5b348015610089575f80fd5b506100a4600480360381019061009f9190610876565b6101be565b6040516100b191906108b9565b60405180910390f35b3480156100c5575f80fd5b506100ce610203565b6040516100db91906108b9565b60405180910390f35b3480156100ef575f80fd5b506100f8610227565b60405161010591906108b9565b60405180910390f35b348015610119575f80fd5b50610134600480360381019061012f91906108fc565b61022d565b005b348015610141575f80fd5b5061014a6104ff565b60405161015791906108b9565b60405180910390f35b34801561016b575f80fd5b50610174610505565b60405161018191906108b9565b60405180910390f35b61019261050b565b005b34801561019f575f80fd5b506101a8610750565b6040516101b591906108b9565b60405180910390f35b5f805f8373ffffffffffffffffffffffffffffffffffffffff1673ffffffffffffffffffffffffffffffffffffffff1681526020019081526020015f20549050919050565b7f000000000000000000000000000000000000000000000000000000000000000081565b60035481565b60045f9054906101000a900460ff1615610273576040517fab143c0600000000000000000000000000000000000000000000000000000000815260040160405180910390fd5b600160045f6101000a81548160ff0219169083151502179055505f81036102c6576040517f1f2a200500000000000000000000000000000000000000000000000000000000815260040160405180910390fd5b7f000000000000000000000000000000000000000000000000000000000000000081111561034d577f0000000000000000000000000000000000000000000000000000000000000000816040517fb4ed2d2b000000000000000000000000000000000000000000000000000000008152600401610344929190610927565b60405180910390fd5b5f805f3373ffffffffffffffffffffffffffffffffffffffff1673ffffffffffffffffffffffffffffffffffffffff1681526020019081526020015f20549050808211156103d45780826040517f03eb8b540000000000000000000000000000000000000000000000000000000081526004016103cb929190610927565b60405180910390fd5b81816103e0919061097b565b5f803373ffffffffffffffffffffffffffffffffffffffff1673ffffffffffffffffffffffffffffffffffffffff1681526020019081526020015f20819055508160035f828254610431919061097b565b92505081905550600160025f82825401925050819055506104523383610774565b3373ffffffffffffffffffffffffffffffffffffffff167f75e161b3e824b114fc1a33274bd7091918dd4e639cede50b78b15a4eea956a21835f803373ffffffffffffffffffffffffffffffffffffffff1673ffffffffffffffffffffffffffffffffffffffff1681526020019081526020015f20546003546040516104da939291906109ae565b60405180910390a2505f60045f6101000a81548160ff02191690831515021790555050565b60025481565b60015481565b60045f9054906101000a900460ff1615610551576040517fab143c0600000000000000000000000000000000000000000000000000000000815260040160405180910390fd5b600160045f6101000a81548160ff0219169083151502179055505f34036105a4576040517f1f2a200500000000000000000000000000000000000000000000000000000000815260040160405180910390fd5b5f346003546105b391906109e3565b90507f000000000000000000000000000000000000000000000000000000000000000081111561063c577f0000000000000000000000000000000000000000000000000000000000000000816040517f4274ef77000000000000000000000000000000000000000000000000000000008152600401610633929190610927565b60405180910390fd5b345f803373ffffffffffffffffffffffffffffffffffffffff1673ffffffffffffffffffffffffffffffffffffffff1681526020019081526020015f205f82825461068791906109e3565b92505081905550806003819055506001805f82825401925050819055503373ffffffffffffffffffffffffffffffffffffffff167f91ede45f04a37a7c170f5c1207df3b6bc748dc1e04ad5e917a241d0f52feada3345f803373ffffffffffffffffffffffffffffffffffffffff1673ffffffffffffffffffffffffffffffffffffffff1681526020019081526020015f205460035460405161072c939291906109ae565b60405180910390a2505f60045f6101000a81548160ff021916908315150217905550565b7f000000000000000000000000000000000000000000000000000000000000000081565b5f8273ffffffffffffffffffffffffffffffffffffffff168260405161079990610a43565b5f6040518083038185875af1925050503d805f81146107d3576040519150601f19603f3d011682016040523d82523d5f602084013e6107d8565b606091505b5050905080610813576040517f90b8ec1800000000000000000000000000000000000000000000000000000000815260040160405180910390fd5b505050565b5f80fd5b5f73ffffffffffffffffffffffffffffffffffffffff82169050919050565b5f6108458261081c565b9050919050565b6108558161083b565b811461085f575f80fd5b50565b5f813590506108708161084c565b92915050565b5f6020828403121561088b5761088a610818565b5b5f61089884828501610862565b91505092915050565b5f819050919050565b6108b3816108a1565b82525050565b5f6020820190506108cc5f8301846108aa565b92915050565b6108db816108a1565b81146108e5575f80fd5b50565b5f813590506108f6816108d2565b92915050565b5f6020828403121561091157610910610818565b5b5f61091e848285016108e8565b91505092915050565b5f60408201905061093a5f8301856108aa565b61094760208301846108aa565b9392505050565b7f4e487b71000000000000000000000000000000000000000000000000000000005f52601160045260245ffd5b5f610985826108a1565b9150610990836108a1565b92508282039050818111156109a8576109a761094e565b5b92915050565b5f6060820190506109c15f8301866108aa565b6109ce60208301856108aa565b6109db60408301846108aa565b949350505050565b5f6109ed826108a1565b91506109f8836108a1565b9250828201905080821115610a1057610a0f61094e565b5b92915050565b5f81905092915050565b50565b5f610a2e5f83610a16565b9150610a3982610a20565b5f82019050919050565b5f610a4d82610a23565b915081905091905056fea2646970667358221220dceaaf47de2711ca23affc61cf5a717be6b20a7d9f99b9f3bc897fddc97a46be64736f6c63430008180033",
					"opcodes": "PUSH1 0xC0 PUSH1 0x40 MSTORE CALLVALUE DUP1 ISZERO PUSH2 0xF JUMPI PUSH0 DUP1 REVERT JUMPDEST POP PUSH1 0x40 MLOAD PUSH2 0xBCB CODESIZE SUB DUP1 PUSH2 0xBCB DUP4 CODECOPY DUP2 DUP2 ADD PUSH1 0x40 MSTORE DUP2 ADD SWAP1 PUSH2 0x31 SWAP2 SWAP1 PUSH2 0xC3 JUMP JUMPDEST PUSH0 DUP3 EQ DUP1 PUSH2 0x3E JUMPI POP PUSH0 DUP2 EQ JUMPDEST ISZERO PUSH2 0x75 JUMPI PUSH1 0x40 MLOAD PUSH32 0x1F2A200500000000000000000000000000000000000000000000000000000000 DUP2 MSTORE PUSH1 0x4 ADD PUSH1 0x40 MLOAD DUP1 SWAP2 SUB SWAP1 REVERT JUMPDEST DUP2 PUSH1 0x80 DUP2 DUP2 MSTORE POP POP DUP1 PUSH1 0xA0 DUP2 DUP2 MSTORE POP POP POP POP PUSH2 0x101 JUMP JUMPDEST PUSH0 DUP1 REVERT JUMPDEST PUSH0 DUP2 SWAP1 POP SWAP2 SWAP1 POP JUMP JUMPDEST PUSH2 0xA2 DUP2 PUSH2 0x90 JUMP JUMPDEST DUP2 EQ PUSH2 0xAC JUMPI PUSH0 DUP1 REVERT JUMPDEST POP JUMP JUMPDEST PUSH0 DUP2 MLOAD SWAP1 POP PUSH2 0xBD DUP2 PUSH2 0x99 JUMP JUMPDEST SWAP3 SWAP2 POP POP JUMP JUMPDEST PUSH0 DUP1 PUSH1 0x40 DUP4 DUP6 SUB SLT ISZERO PUSH2 0xD9 JUMPI PUSH2 0xD8 PUSH2 0x8C JUMP JUMPDEST JUMPDEST PUSH0 PUSH2 0xE6 DUP6 DUP3 DUP7 ADD PUSH2 0xAF JUMP JUMPDEST SWAP3 POP POP PUSH1 0x20 PUSH2 0xF7 DUP6 DUP3 DUP7 ADD PUSH2 0xAF JUMP JUMPDEST SWAP2 POP POP SWAP3 POP SWAP3 SWAP1 POP JUMP JUMPDEST PUSH1 0x80 MLOAD PUSH1 0xA0 MLOAD PUSH2 0xA8D PUSH2 0x13E PUSH0 CODECOPY PUSH0 DUP2 DUP2 PUSH2 0x205 ADD MSTORE DUP2 DUP2 PUSH2 0x5B7 ADD MSTORE PUSH2 0x5DF ADD MSTORE PUSH0 DUP2 DUP2 PUSH2 0x2C8 ADD MSTORE DUP2 DUP2 PUSH2 0x2F0 ADD MSTORE PUSH2 0x752 ADD MSTORE PUSH2 0xA8D PUSH0 RETURN INVALID PUSH1 0x80 PUSH1 0x40 MSTORE PUSH1 0x4 CALLDATASIZE LT PUSH2 0x7A JUMPI PUSH0 CALLDATALOAD PUSH1 0xE0 SHR DUP1 PUSH4 0x2E7FBD67 GT PUSH2 0x4D JUMPI DUP1 PUSH4 0x2E7FBD67 EQ PUSH2 0x136 JUMPI DUP1 PUSH4 0x4506E935 EQ PUSH2 0x160 JUMPI DUP1 PUSH4 0xD0E30DB0 EQ PUSH2 0x18A JUMPI DUP1 PUSH4 0xE28879EE EQ PUSH2 0x194 JUMPI PUSH2 0x7A JUMP JUMPDEST DUP1 PUSH4 0x709DF45 EQ PUSH2 0x7E JUMPI DUP1 PUSH4 0xDBAD953 EQ PUSH2 0xBA JUMPI DUP1 PUSH4 0x1977E938 EQ PUSH2 0xE4 JUMPI DUP1 PUSH4 0x2E1A7D4D EQ PUSH2 0x10E JUMPI JUMPDEST PUSH0 DUP1 REVERT JUMPDEST CALLVALUE DUP1 ISZERO PUSH2 0x89 JUMPI PUSH0 DUP1 REVERT JUMPDEST POP PUSH2 0xA4 PUSH1 0x4 DUP1 CALLDATASIZE SUB DUP2 ADD SWAP1 PUSH2 0x9F SWAP2 SWAP1 PUSH2 0x876 JUMP JUMPDEST PUSH2 0x1BE JUMP JUMPDEST PUSH1 0x40 MLOAD PUSH2 0xB1 SWAP2 SWAP1 PUSH2 0x8B9 JUMP JUMPDEST PUSH1 0x40 MLOAD DUP1 SWAP2 SUB SWAP1 RETURN JUMPDEST CALLVALUE DUP1 ISZERO PUSH2 0xC5 JUMPI PUSH0 DUP1 REVERT JUMPDEST POP PUSH2 0xCE PUSH2 0x203 JUMP JUMPDEST PUSH1 0x40 MLOAD PUSH2 0xDB SWAP2 SWAP1 PUSH2 0x8B9 JUMP JUMPDEST PUSH1 0x40 MLOAD DUP1 SWAP2 SUB SWAP1 RETURN JUMPDEST CALLVALUE DUP1 ISZERO PUSH2 0xEF JUMPI PUSH0 DUP1 REVERT JUMPDEST POP PUSH2 0xF8 PUSH2 0x227 JUMP JUMPDEST PUSH1 0x40 MLOAD PUSH2 0x105 SWAP2 SWAP1 PUSH2 0x8B9 JUMP JUMPDEST PUSH1 0x40 MLOAD DUP1 SWAP2 SUB SWAP1 RETURN JUMPDEST CALLVALUE DUP1 ISZERO PUSH2 0x119 JUMPI PUSH0 DUP1 REVERT JUMPDEST POP PUSH2 0x134 PUSH1 0x4 DUP1 CALLDATASIZE SUB DUP2 ADD SWAP1 PUSH2 0x12F SWAP2 SWAP1 PUSH2 0x8FC JUMP JUMPDEST PUSH2 0x22D JUMP JUMPDEST STOP JUMPDEST CALLVALUE DUP1 ISZERO PUSH2 0x141 JUMPI PUSH0 DUP1 REVERT JUMPDEST POP PUSH2 0x14A PUSH2 0x4FF JUMP JUMPDEST PUSH1 0x40 MLOAD PUSH2 0x157 SWAP2 SWAP1 PUSH2 0x8B9 JUMP JUMPDEST PUSH1 0x40 MLOAD DUP1 SWAP2 SUB SWAP1 RETURN JUMPDEST CALLVALUE DUP1 ISZERO PUSH2 0x16B JUMPI PUSH0 DUP1 REVERT JUMPDEST POP PUSH2 0x174 PUSH2 0x505 JUMP JUMPDEST PUSH1 0x40 MLOAD PUSH2 0x181 SWAP2 SWAP1 PUSH2 0x8B9 JUMP JUMPDEST PUSH1 0x40 MLOAD DUP1 SWAP2 SUB SWAP1 RETURN JUMPDEST PUSH2 0x192 PUSH2 0x50B JUMP JUMPDEST STOP JUMPDEST CALLVALUE DUP1 ISZERO PUSH2 0x19F JUMPI PUSH0 DUP1 REVERT JUMPDEST POP PUSH2 0x1A8 PUSH2 0x750 JUMP JUMPDEST PUSH1 0x40 MLOAD PUSH2 0x1B5 SWAP2 SWAP1 PUSH2 0x8B9 JUMP JUMPDEST PUSH1 0x40 MLOAD DUP1 SWAP2 SUB SWAP1 RETURN JUMPDEST PUSH0 DUP1 PUSH0 DUP4 PUSH20 0xFFFFFFFFFFFFFFFFFFFFFFFFFFFFFFFFFFFFFFFF AND PUSH20 0xFFFFFFFFFFFFFFFFFFFFFFFFFFFFFFFFFFFFFFFF AND DUP2 MSTORE PUSH1 0x20 ADD SWAP1 DUP2 MSTORE PUSH1 0x20 ADD PUSH0 KECCAK256 SLOAD SWAP1 POP SWAP2 SWAP1 POP JUMP JUMPDEST PUSH32 0x0 DUP2 JUMP JUMPDEST PUSH1 0x3 SLOAD DUP2 JUMP JUMPDEST PUSH1 0x4 PUSH0 SWAP1 SLOAD SWAP1 PUSH2 0x100 EXP SWAP1 DIV PUSH1 0xFF AND ISZERO PUSH2 0x273 JUMPI PUSH1 0x40 MLOAD PUSH32 0xAB143C0600000000000000000000000000000000000000000000000000000000 DUP2 MSTORE PUSH1 0x4 ADD PUSH1 0x40 MLOAD DUP1 SWAP2 SUB SWAP1 REVERT JUMPDEST PUSH1 0x1 PUSH1 0x4 PUSH0 PUSH2 0x100 EXP DUP2 SLOAD DUP2 PUSH1 0xFF MUL NOT AND SWAP1 DUP4 ISZERO ISZERO MUL OR SWAP1 SSTORE POP PUSH0 DUP2 SUB PUSH2 0x2C6 JUMPI PUSH1 0x40 MLOAD PUSH32 0x1F2A200500000000000000000000000000000000000000000000000000000000 DUP2 MSTORE PUSH1 0x4 ADD PUSH1 0x40 MLOAD DUP1 SWAP2 SUB SWAP1 REVERT JUMPDEST PUSH32 0x0 DUP2 GT ISZERO PUSH2 0x34D JUMPI PUSH32 0x0 DUP2 PUSH1 0x40 MLOAD PUSH32 0xB4ED2D2B00000000000000000000000000000000000000000000000000000000 DUP2 MSTORE PUSH1 0x4 ADD PUSH2 0x344 SWAP3 SWAP2 SWAP1 PUSH2 0x927 JUMP JUMPDEST PUSH1 0x40 MLOAD DUP1 SWAP2 SUB SWAP1 REVERT JUMPDEST PUSH0 DUP1 PUSH0 CALLER PUSH20 0xFFFFFFFFFFFFFFFFFFFFFFFFFFFFFFFFFFFFFFFF AND PUSH20 0xFFFFFFFFFFFFFFFFFFFFFFFFFFFFFFFFFFFFFFFF AND DUP2 MSTORE PUSH1 0x20 ADD SWAP1 DUP2 MSTORE PUSH1 0x20 ADD PUSH0 KECCAK256 SLOAD SWAP1 POP DUP1 DUP3 GT ISZERO PUSH2 0x3D4 JUMPI DUP1 DUP3 PUSH1 0x40 MLOAD PUSH32 0x3EB8B5400000000000000000000000000000000000000000000000000000000 DUP2 MSTORE PUSH1 0x4 ADD PUSH2 0x3CB SWAP3 SWAP2 SWAP1 PUSH2 0x927 JUMP JUMPDEST PUSH1 0x40 MLOAD DUP1 SWAP2 SUB SWAP1 REVERT JUMPDEST DUP2 DUP2 PUSH2 0x3E0 SWAP2 SWAP1 PUSH2 0x97B JUMP JUMPDEST PUSH0 DUP1 CALLER PUSH20 0xFFFFFFFFFFFFFFFFFFFFFFFFFFFFFFFFFFFFFFFF AND PUSH20 0xFFFFFFFFFFFFFFFFFFFFFFFFFFFFFFFFFFFFFFFF AND DUP2 MSTORE PUSH1 0x20 ADD SWAP1 DUP2 MSTORE PUSH1 0x20 ADD PUSH0 KECCAK256 DUP2 SWAP1 SSTORE POP DUP2 PUSH1 0x3 PUSH0 DUP3 DUP3 SLOAD PUSH2 0x431 SWAP2 SWAP1 PUSH2 0x97B JUMP JUMPDEST SWAP3 POP POP DUP2 SWAP1 SSTORE POP PUSH1 0x1 PUSH1 0x2 PUSH0 DUP3 DUP3 SLOAD ADD SWAP3 POP POP DUP2 SWAP1 SSTORE POP PUSH2 0x452 CALLER DUP4 PUSH2 0x774 JUMP JUMPDEST CALLER PUSH20 0xFFFFFFFFFFFFFFFFFFFFFFFFFFFFFFFFFFFFFFFF AND PUSH32 0x75E161B3E824B114FC1A33274BD7091918DD4E639CEDE50B78B15A4EEA956A21 DUP4 PUSH0 DUP1 CALLER PUSH20 0xFFFFFFFFFFFFFFFFFFFFFFFFFFFFFFFFFFFFFFFF AND PUSH20 0xFFFFFFFFFFFFFFFFFFFFFFFFFFFFFFFFFFFFFFFF AND DUP2 MSTORE PUSH1 0x20 ADD SWAP1 DUP2 MSTORE PUSH1 0x20 ADD PUSH0 KECCAK256 SLOAD PUSH1 0x3 SLOAD PUSH1 0x40 MLOAD PUSH2 0x4DA SWAP4 SWAP3 SWAP2 SWAP1 PUSH2 0x9AE JUMP JUMPDEST PUSH1 0x40 MLOAD DUP1 SWAP2 SUB SWAP1 LOG2 POP PUSH0 PUSH1 0x4 PUSH0 PUSH2 0x100 EXP DUP2 SLOAD DUP2 PUSH1 0xFF MUL NOT AND SWAP1 DUP4 ISZERO ISZERO MUL OR SWAP1 SSTORE POP POP JUMP JUMPDEST PUSH1 0x2 SLOAD DUP2 JUMP JUMPDEST PUSH1 0x1 SLOAD DUP2 JUMP JUMPDEST PUSH1 0x4 PUSH0 SWAP1 SLOAD SWAP1 PUSH2 0x100 EXP SWAP1 DIV PUSH1 0xFF AND ISZERO PUSH2 0x551 JUMPI PUSH1 0x40 MLOAD PUSH32 0xAB143C0600000000000000000000000000000000000000000000000000000000 DUP2 MSTORE PUSH1 0x4 ADD PUSH1 0x40 MLOAD DUP1 SWAP2 SUB SWAP1 REVERT JUMPDEST PUSH1 0x1 PUSH1 0x4 PUSH0 PUSH2 0x100 EXP DUP2 SLOAD DUP2 PUSH1 0xFF MUL NOT AND SWAP1 DUP4 ISZERO ISZERO MUL OR SWAP1 SSTORE POP PUSH0 CALLVALUE SUB PUSH2 0x5A4 JUMPI PUSH1 0x40 MLOAD PUSH32 0x1F2A200500000000000000000000000000000000000000000000000000000000 DUP2 MSTORE PUSH1 0x4 ADD PUSH1 0x40 MLOAD DUP1 SWAP2 SUB SWAP1 REVERT JUMPDEST PUSH0 CALLVALUE PUSH1 0x3 SLOAD PUSH2 0x5B3 SWAP2 SWAP1 PUSH2 0x9E3 JUMP JUMPDEST SWAP1 POP PUSH32 0x0 DUP2 GT ISZERO PUSH2 0x63C JUMPI PUSH32 0x0 DUP2 PUSH1 0x40 MLOAD PUSH32 0x4274EF7700000000000000000000000000000000000000000000000000000000 DUP2 MSTORE PUSH1 0x4 ADD PUSH2 0x633 SWAP3 SWAP2 SWAP1 PUSH2 0x927 JUMP JUMPDEST PUSH1 0x40 MLOAD DUP1 SWAP2 SUB SWAP1 REVERT JUMPDEST CALLVALUE PUSH0 DUP1 CALLER PUSH20 0xFFFFFFFFFFFFFFFFFFFFFFFFFFFFFFFFFFFFFFFF AND PUSH20 0xFFFFFFFFFFFFFFFFFFFFFFFFFFFFFFFFFFFFFFFF AND DUP2 MSTORE PUSH1 0x20 ADD SWAP1 DUP2 MSTORE PUSH1 0x20 ADD PUSH0 KECCAK256 PUSH0 DUP3 DUP3 SLOAD PUSH2 0x687 SWAP2 SWAP1 PUSH2 0x9E3 JUMP JUMPDEST SWAP3 POP POP DUP2 SWAP1 SSTORE POP DUP1 PUSH1 0x3 DUP2 SWAP1 SSTORE POP PUSH1 0x1 DUP1 PUSH0 DUP3 DUP3 SLOAD ADD SWAP3 POP POP DUP2 SWAP1 SSTORE POP CALLER PUSH20 0xFFFFFFFFFFFFFFFFFFFFFFFFFFFFFFFFFFFFFFFF AND PUSH32 0x91EDE45F04A37A7C170F5C1207DF3B6BC748DC1E04AD5E917A241D0F52FEADA3 CALLVALUE PUSH0 DUP1 CALLER PUSH20 0xFFFFFFFFFFFFFFFFFFFFFFFFFFFFFFFFFFFFFFFF AND PUSH20 0xFFFFFFFFFFFFFFFFFFFFFFFFFFFFFFFFFFFFFFFF AND DUP2 MSTORE PUSH1 0x20 ADD SWAP1 DUP2 MSTORE PUSH1 0x20 ADD PUSH0 KECCAK256 SLOAD PUSH1 0x3 SLOAD PUSH1 0x40 MLOAD PUSH2 0x72C SWAP4 SWAP3 SWAP2 SWAP1 PUSH2 0x9AE JUMP JUMPDEST PUSH1 0x40 MLOAD DUP1 SWAP2 SUB SWAP1 LOG2 POP PUSH0 PUSH1 0x4 PUSH0 PUSH2 0x100 EXP DUP2 SLOAD DUP2 PUSH1 0xFF MUL NOT AND SWAP1 DUP4 ISZERO ISZERO MUL OR SWAP1 SSTORE POP JUMP JUMPDEST PUSH32 0x0 DUP2 JUMP JUMPDEST PUSH0 DUP3 PUSH20 0xFFFFFFFFFFFFFFFFFFFFFFFFFFFFFFFFFFFFFFFF AND DUP3 PUSH1 0x40 MLOAD PUSH2 0x799 SWAP1 PUSH2 0xA43 JUMP JUMPDEST PUSH0 PUSH1 0x40 MLOAD DUP1 DUP4 SUB DUP2 DUP6 DUP8 GAS CALL SWAP3 POP POP POP RETURNDATASIZE DUP1 PUSH0 DUP2 EQ PUSH2 0x7D3 JUMPI PUSH1 0x40 MLOAD SWAP2 POP PUSH1 0x1F NOT PUSH1 0x3F RETURNDATASIZE ADD AND DUP3 ADD PUSH1 0x40 MSTORE RETURNDATASIZE DUP3 MSTORE RETURNDATASIZE PUSH0 PUSH1 0x20 DUP5 ADD RETURNDATACOPY PUSH2 0x7D8 JUMP JUMPDEST PUSH1 0x60 SWAP2 POP JUMPDEST POP POP SWAP1 POP DUP1 PUSH2 0x813 JUMPI PUSH1 0x40 MLOAD PUSH32 0x90B8EC1800000000000000000000000000000000000000000000000000000000 DUP2 MSTORE PUSH1 0x4 ADD PUSH1 0x40 MLOAD DUP1 SWAP2 SUB SWAP1 REVERT JUMPDEST POP POP POP JUMP JUMPDEST PUSH0 DUP1 REVERT JUMPDEST PUSH0 PUSH20 0xFFFFFFFFFFFFFFFFFFFFFFFFFFFFFFFFFFFFFFFF DUP3 AND SWAP1 POP SWAP2 SWAP1 POP JUMP JUMPDEST PUSH0 PUSH2 0x845 DUP3 PUSH2 0x81C JUMP JUMPDEST SWAP1 POP SWAP2 SWAP1 POP JUMP JUMPDEST PUSH2 0x855 DUP2 PUSH2 0x83B JUMP JUMPDEST DUP2 EQ PUSH2 0x85F JUMPI PUSH0 DUP1 REVERT JUMPDEST POP JUMP JUMPDEST PUSH0 DUP2 CALLDATALOAD SWAP1 POP PUSH2 0x870 DUP2 PUSH2 0x84C JUMP JUMPDEST SWAP3 SWAP2 POP POP JUMP JUMPDEST PUSH0 PUSH1 0x20 DUP3 DUP5 SUB SLT ISZERO PUSH2 0x88B JUMPI PUSH2 0x88A PUSH2 0x818 JUMP JUMPDEST JUMPDEST PUSH0 PUSH2 0x898 DUP5 DUP3 DUP6 ADD PUSH2 0x862 JUMP JUMPDEST SWAP2 POP POP SWAP3 SWAP2 POP POP JUMP JUMPDEST PUSH0 DUP2 SWAP1 POP SWAP2 SWAP1 POP JUMP JUMPDEST PUSH2 0x8B3 DUP2 PUSH2 0x8A1 JUMP JUMPDEST DUP3 MSTORE POP POP JUMP JUMPDEST PUSH0 PUSH1 0x20 DUP3 ADD SWAP1 POP PUSH2 0x8CC PUSH0 DUP4 ADD DUP5 PUSH2 0x8AA JUMP JUMPDEST SWAP3 SWAP2 POP POP JUMP JUMPDEST PUSH2 0x8DB DUP2 PUSH2 0x8A1 JUMP JUMPDEST DUP2 EQ PUSH2 0x8E5 JUMPI PUSH0 DUP1 REVERT JUMPDEST POP JUMP JUMPDEST PUSH0 DUP2 CALLDATALOAD SWAP1 POP PUSH2 0x8F6 DUP2 PUSH2 0x8D2 JUMP JUMPDEST SWAP3 SWAP2 POP POP JUMP JUMPDEST PUSH0 PUSH1 0x20 DUP3 DUP5 SUB SLT ISZERO PUSH2 0x911 JUMPI PUSH2 0x910 PUSH2 0x818 JUMP JUMPDEST JUMPDEST PUSH0 PUSH2 0x91E DUP5 DUP3 DUP6 ADD PUSH2 0x8E8 JUMP JUMPDEST SWAP2 POP POP SWAP3 SWAP2 POP POP JUMP JUMPDEST PUSH0 PUSH1 0x40 DUP3 ADD SWAP1 POP PUSH2 0x93A PUSH0 DUP4 ADD DUP6 PUSH2 0x8AA JUMP JUMPDEST PUSH2 0x947 PUSH1 0x20 DUP4 ADD DUP5 PUSH2 0x8AA JUMP JUMPDEST SWAP4 SWAP3 POP POP POP JUMP JUMPDEST PUSH32 0x4E487B7100000000000000000000000000000000000000000000000000000000 PUSH0 MSTORE PUSH1 0x11 PUSH1 0x4 MSTORE PUSH1 0x24 PUSH0 REVERT JUMPDEST PUSH0 PUSH2 0x985 DUP3 PUSH2 0x8A1 JUMP JUMPDEST SWAP2 POP PUSH2 0x990 DUP4 PUSH2 0x8A1 JUMP JUMPDEST SWAP3 POP DUP3 DUP3 SUB SWAP1 POP DUP2 DUP2 GT ISZERO PUSH2 0x9A8 JUMPI PUSH2 0x9A7 PUSH2 0x94E JUMP JUMPDEST JUMPDEST SWAP3 SWAP2 POP POP JUMP JUMPDEST PUSH0 PUSH1 0x60 DUP3 ADD SWAP1 POP PUSH2 0x9C1 PUSH0 DUP4 ADD DUP7 PUSH2 0x8AA JUMP JUMPDEST PUSH2 0x9CE PUSH1 0x20 DUP4 ADD DUP6 PUSH2 0x8AA JUMP JUMPDEST PUSH2 0x9DB PUSH1 0x40 DUP4 ADD DUP5 PUSH2 0x8AA JUMP JUMPDEST SWAP5 SWAP4 POP POP POP POP JUMP JUMPDEST PUSH0 PUSH2 0x9ED DUP3 PUSH2 0x8A1 JUMP JUMPDEST SWAP2 POP PUSH2 0x9F8 DUP4 PUSH2 0x8A1 JUMP JUMPDEST SWAP3 POP DUP3 DUP3 ADD SWAP1 POP DUP1 DUP3 GT ISZERO PUSH2 0xA10 JUMPI PUSH2 0xA0F PUSH2 0x94E JUMP JUMPDEST JUMPDEST SWAP3 SWAP2 POP POP JUMP JUMPDEST PUSH0 DUP2 SWAP1 POP SWAP3 SWAP2 POP POP JUMP JUMPDEST POP JUMP JUMPDEST PUSH0 PUSH2 0xA2E PUSH0 DUP4 PUSH2 0xA16 JUMP JUMPDEST SWAP2 POP PUSH2 0xA39 DUP3 PUSH2 0xA20 JUMP JUMPDEST PUSH0 DUP3 ADD SWAP1 POP SWAP2 SWAP1 POP JUMP JUMPDEST PUSH0 PUSH2 0xA4D DUP3 PUSH2 0xA23 JUMP JUMPDEST SWAP2 POP DUP2 SWAP1 POP SWAP2 SWAP1 POP JUMP INVALID LOG2 PUSH5 0x6970667358 0x22 SLT KECCAK256 0xDC 0xEA 0xAF SELFBALANCE 0xDE 0x27 GT 0xCA 0x23 0xAF 0xFC PUSH2 0xCF5A PUSH18 0x7BE6B20A7D9F99B9F3BC897FDDC97A46BE64 PUSH20 0x6F6C634300081800330000000000000000000000 "
				},
				"gasEstimates": {
					"creation": {
						"codeDepositCost": "540200",
						"executionCost": "infinite",
						"totalCost": "infinite"
					},
					"external": {
						"BANK_CAP()": "infinite",
						"WITHDRAWAL_THRESHOLD()": "infinite",
						"deposit()": "infinite",
						"depositsCount()": "2447",
						"totalBankBalance()": "2470",
						"vaultOf(address)": "2830",
						"withdraw(uint256)": "infinite",
						"withdrawalsCount()": "2425"
					},
					"internal": {
						"_safeTransfer(address payable,uint256)": "infinite"
					}
				},
				"methodIdentifiers": {
					"BANK_CAP()": "0dbad953",
					"WITHDRAWAL_THRESHOLD()": "e28879ee",
					"deposit()": "d0e30db0",
					"depositsCount()": "4506e935",
					"totalBankBalance()": "1977e938",
					"vaultOf(address)": "0709df45",
					"withdraw(uint256)": "2e1a7d4d",
					"withdrawalsCount()": "2e7fbd67"
				}
			},
			"storageLayout": {
				"storage": [
					{
						"astId": 65,
						"contract": "contracts/KipuBank.sol:KipuBank",
						"label": "_vault",
						"offset": 0,
						"slot": "0",
						"type": "t_mapping(t_address,t_uint256)"
					},
					{
						"astId": 68,
						"contract": "contracts/KipuBank.sol:KipuBank",
						"label": "depositsCount",
						"offset": 0,
						"slot": "1",
						"type": "t_uint256"
					},
					{
						"astId": 71,
						"contract": "contracts/KipuBank.sol:KipuBank",
						"label": "withdrawalsCount",
						"offset": 0,
						"slot": "2",
						"type": "t_uint256"
					},
					{
						"astId": 74,
						"contract": "contracts/KipuBank.sol:KipuBank",
						"label": "totalBankBalance",
						"offset": 0,
						"slot": "3",
						"type": "t_uint256"
					},
					{
						"astId": 77,
						"contract": "contracts/KipuBank.sol:KipuBank",
						"label": "_entered",
						"offset": 0,
						"slot": "4",
						"type": "t_bool"
					}
				],
				"types": {
					"t_address": {
						"encoding": "inplace",
						"label": "address",
						"numberOfBytes": "20"
					},
					"t_bool": {
						"encoding": "inplace",
						"label": "bool",
						"numberOfBytes": "1"
					},
					"t_mapping(t_address,t_uint256)": {
						"encoding": "mapping",
						"key": "t_address",
						"label": "mapping(address => uint256)",
						"numberOfBytes": "32",
						"value": "t_uint256"
					},
					"t_uint256": {
						"encoding": "inplace",
						"label": "uint256",
						"numberOfBytes": "32"
					}
				}
			},
			"userdoc": {
				"errors": {
					"ExceedsBankCap(uint256,uint256)": [
						{
							"notice": "Depósito excede el tope global del banco."
						}
					],
					"ExceedsThreshold(uint256,uint256)": [
						{
							"notice": "Retiro excede el umbral por transacción."
						}
					],
					"InsufficientFunds(uint256,uint256)": [
						{
							"notice": "Fondos insuficientes en la bóveda del usuario."
						}
					],
					"Reentrancy()": [
						{
							"notice": "Reingreso detectado."
						}
					],
					"TransferFailed()": [
						{
							"notice": "Falla en la transferencia nativa."
						}
					],
					"ZeroAmount()": [
						{
							"notice": "Monto cero no permitido."
						}
					]
				},
				"events": {
					"Deposited(address,uint256,uint256,uint256)": {
						"notice": "Emitted on successful deposit."
					},
					"Withdrawn(address,uint256,uint256,uint256)": {
						"notice": "Emitted on successful withdrawal."
					}
				},
				"kind": "user",
				"methods": {
					"BANK_CAP()": {
						"notice": "Tope global de depósitos del banco (inmutable)."
					},
					"WITHDRAWAL_THRESHOLD()": {
						"notice": "Umbral máximo por retiro individual (inmutable)."
					},
					"deposit()": {
						"notice": "Depósitá ETH en tu bóveda personal."
					},
					"depositsCount()": {
						"notice": "Contador global de depósitos exitosos."
					},
					"totalBankBalance()": {
						"notice": "Suma de todos los saldos del banco."
					},
					"vaultOf(address)": {
						"notice": "Leé el saldo de la bóveda de una cuenta."
					},
					"withdraw(uint256)": {
						"notice": "Retirá hasta el umbral por transacción, sin exceder tu saldo."
					},
					"withdrawalsCount()": {
						"notice": "Contador global de retiros exitosos."
					}
				},
				"notice": "Permite a los usuarios depositar y retirar ETH con límites seguros.",
				"version": 1
			}
		}
	}
}